{
  "_format": "hh-sol-artifact-1",
  "contractName": "FractionalToken",
  "sourceName": "contracts/FractionalToken.sol",
  "abi": [
    {
      "inputs": [
        {
          "internalType": "string",
          "name": "name",
          "type": "string"
        },
        {
          "internalType": "string",
          "name": "symbol",
          "type": "string"
        },
        {
          "internalType": "uint256",
          "name": "initialSupply",
          "type": "uint256"
        },
        {
          "internalType": "address",
          "name": "owner",
          "type": "address"
        }
      ],
      "stateMutability": "nonpayable",
      "type": "constructor"
    },
    {
      "inputs": [
        {
          "internalType": "address",
          "name": "spender",
          "type": "address"
        },
        {
          "internalType": "uint256",
          "name": "allowance",
          "type": "uint256"
        },
        {
          "internalType": "uint256",
          "name": "needed",
          "type": "uint256"
        }
      ],
      "name": "ERC20InsufficientAllowance",
      "type": "error"
    },
    {
      "inputs": [
        {
          "internalType": "address",
          "name": "sender",
          "type": "address"
        },
        {
          "internalType": "uint256",
          "name": "balance",
          "type": "uint256"
        },
        {
          "internalType": "uint256",
          "name": "needed",
          "type": "uint256"
        }
      ],
      "name": "ERC20InsufficientBalance",
      "type": "error"
    },
    {
      "inputs": [
        {
          "internalType": "address",
          "name": "approver",
          "type": "address"
        }
      ],
      "name": "ERC20InvalidApprover",
      "type": "error"
    },
    {
      "inputs": [
        {
          "internalType": "address",
          "name": "receiver",
          "type": "address"
        }
      ],
      "name": "ERC20InvalidReceiver",
      "type": "error"
    },
    {
      "inputs": [
        {
          "internalType": "address",
          "name": "sender",
          "type": "address"
        }
      ],
      "name": "ERC20InvalidSender",
      "type": "error"
    },
    {
      "inputs": [
        {
          "internalType": "address",
          "name": "spender",
          "type": "address"
        }
      ],
      "name": "ERC20InvalidSpender",
      "type": "error"
    },
    {
      "inputs": [
        {
          "internalType": "address",
          "name": "owner",
          "type": "address"
        }
      ],
      "name": "OwnableInvalidOwner",
      "type": "error"
    },
    {
      "inputs": [
        {
          "internalType": "address",
          "name": "account",
          "type": "address"
        }
      ],
      "name": "OwnableUnauthorizedAccount",
      "type": "error"
    },
    {
      "anonymous": false,
      "inputs": [
        {
          "indexed": true,
          "internalType": "address",
          "name": "owner",
          "type": "address"
        },
        {
          "indexed": true,
          "internalType": "address",
          "name": "spender",
          "type": "address"
        },
        {
          "indexed": false,
          "internalType": "uint256",
          "name": "value",
          "type": "uint256"
        }
      ],
      "name": "Approval",
      "type": "event"
    },
    {
      "anonymous": false,
      "inputs": [
        {
          "indexed": true,
          "internalType": "address",
          "name": "from",
          "type": "address"
        },
        {
          "indexed": false,
          "internalType": "uint256",
          "name": "amount",
          "type": "uint256"
        }
      ],
      "name": "FractionBurned",
      "type": "event"
    },
    {
      "anonymous": false,
      "inputs": [
        {
          "indexed": true,
          "internalType": "address",
          "name": "to",
          "type": "address"
        },
        {
          "indexed": false,
          "internalType": "uint256",
          "name": "amount",
          "type": "uint256"
        }
      ],
      "name": "FractionMinted",
      "type": "event"
    },
    {
      "anonymous": false,
      "inputs": [
        {
          "indexed": true,
          "internalType": "address",
          "name": "previousOwner",
          "type": "address"
        },
        {
          "indexed": true,
          "internalType": "address",
          "name": "newOwner",
          "type": "address"
        }
      ],
      "name": "OwnershipTransferred",
      "type": "event"
    },
    {
      "anonymous": false,
      "inputs": [
        {
          "indexed": true,
          "internalType": "address",
          "name": "from",
          "type": "address"
        },
        {
          "indexed": true,
          "internalType": "address",
          "name": "to",
          "type": "address"
        },
        {
          "indexed": false,
          "internalType": "uint256",
          "name": "value",
          "type": "uint256"
        }
      ],
      "name": "Transfer",
      "type": "event"
    },
    {
      "inputs": [
        {
          "internalType": "address",
          "name": "owner",
          "type": "address"
        },
        {
          "internalType": "address",
          "name": "spender",
          "type": "address"
        }
      ],
      "name": "allowance",
      "outputs": [
        {
          "internalType": "uint256",
          "name": "",
          "type": "uint256"
        }
      ],
      "stateMutability": "view",
      "type": "function"
    },
    {
      "inputs": [
        {
          "internalType": "address",
          "name": "spender",
          "type": "address"
        },
        {
          "internalType": "uint256",
          "name": "value",
          "type": "uint256"
        }
      ],
      "name": "approve",
      "outputs": [
        {
          "internalType": "bool",
          "name": "",
          "type": "bool"
        }
      ],
      "stateMutability": "nonpayable",
      "type": "function"
    },
    {
      "inputs": [
        {
          "internalType": "address",
          "name": "account",
          "type": "address"
        }
      ],
      "name": "balanceOf",
      "outputs": [
        {
          "internalType": "uint256",
          "name": "",
          "type": "uint256"
        }
      ],
      "stateMutability": "view",
      "type": "function"
    },
    {
      "inputs": [
        {
          "internalType": "uint256",
          "name": "amount",
          "type": "uint256"
        }
      ],
      "name": "burn",
      "outputs": [],
      "stateMutability": "nonpayable",
      "type": "function"
    },
    {
      "inputs": [
        {
          "internalType": "address",
          "name": "from",
          "type": "address"
        },
        {
          "internalType": "uint256",
          "name": "amount",
          "type": "uint256"
        }
      ],
      "name": "burnFraction",
      "outputs": [],
      "stateMutability": "nonpayable",
      "type": "function"
    },
    {
      "inputs": [],
      "name": "decimals",
      "outputs": [
        {
          "internalType": "uint8",
          "name": "",
          "type": "uint8"
        }
      ],
      "stateMutability": "view",
      "type": "function"
    },
    {
      "inputs": [],
      "name": "getTokenInfo",
      "outputs": [
        {
          "internalType": "string",
          "name": "tokenName",
          "type": "string"
        },
        {
          "internalType": "string",
          "name": "tokenSymbol",
          "type": "string"
        },
        {
          "internalType": "uint256",
          "name": "tokenTotalSupply",
          "type": "uint256"
        },
        {
          "internalType": "uint8",
          "name": "tokenDecimals",
          "type": "uint8"
        },
        {
          "internalType": "address",
          "name": "tokenOwner",
          "type": "address"
        }
      ],
      "stateMutability": "view",
      "type": "function"
    },
    {
      "inputs": [
        {
          "internalType": "address",
          "name": "to",
          "type": "address"
        },
        {
          "internalType": "uint256",
          "name": "amount",
          "type": "uint256"
        }
      ],
      "name": "mintFraction",
      "outputs": [],
      "stateMutability": "nonpayable",
      "type": "function"
    },
    {
      "inputs": [],
      "name": "name",
      "outputs": [
        {
          "internalType": "string",
          "name": "",
          "type": "string"
        }
      ],
      "stateMutability": "view",
      "type": "function"
    },
    {
      "inputs": [],
      "name": "owner",
      "outputs": [
        {
          "internalType": "address",
          "name": "",
          "type": "address"
        }
      ],
      "stateMutability": "view",
      "type": "function"
    },
    {
      "inputs": [],
      "name": "renounceOwnership",
      "outputs": [],
      "stateMutability": "nonpayable",
      "type": "function"
    },
    {
      "inputs": [],
      "name": "symbol",
      "outputs": [
        {
          "internalType": "string",
          "name": "",
          "type": "string"
        }
      ],
      "stateMutability": "view",
      "type": "function"
    },
    {
      "inputs": [],
      "name": "totalSupply",
      "outputs": [
        {
          "internalType": "uint256",
          "name": "",
          "type": "uint256"
        }
      ],
      "stateMutability": "view",
      "type": "function"
    },
    {
      "inputs": [
        {
          "internalType": "address",
          "name": "to",
          "type": "address"
        },
        {
          "internalType": "uint256",
          "name": "value",
          "type": "uint256"
        }
      ],
      "name": "transfer",
      "outputs": [
        {
          "internalType": "bool",
          "name": "",
          "type": "bool"
        }
      ],
      "stateMutability": "nonpayable",
      "type": "function"
    },
    {
      "inputs": [
        {
          "internalType": "address",
          "name": "from",
          "type": "address"
        },
        {
          "internalType": "address",
          "name": "to",
          "type": "address"
        },
        {
          "internalType": "uint256",
          "name": "value",
          "type": "uint256"
        }
      ],
      "name": "transferFrom",
      "outputs": [
        {
          "internalType": "bool",
          "name": "",
          "type": "bool"
        }
      ],
      "stateMutability": "nonpayable",
      "type": "function"
    },
    {
      "inputs": [
        {
          "internalType": "address",
          "name": "newOwner",
          "type": "address"
        }
      ],
      "name": "transferOwnership",
      "outputs": [],
      "stateMutability": "nonpayable",
      "type": "function"
    }
  ],
  "bytecode": "0x60806040523480156200001157600080fd5b50604051620023ca380380620023ca8339818101604052810190620000379190620006b9565b80848481600390816200004b9190620009aa565b5080600490816200005d9190620009aa565b505050600073ffffffffffffffffffffffffffffffffffffffff168173ffffffffffffffffffffffffffffffffffffffff1603620000d55760006040517f1e4fbdf7000000000000000000000000000000000000000000000000000000008152600401620000cc919062000aa2565b60405180910390fd5b620000e6816200010360201b60201c565b50620000f98183620001c960201b60201c565b5050505062000b94565b6000600560009054906101000a900473ffffffffffffffffffffffffffffffffffffffff16905081600560006101000a81548173ffffffffffffffffffffffffffffffffffffffff021916908373ffffffffffffffffffffffffffffffffffffffff1602179055508173ffffffffffffffffffffffffffffffffffffffff168173ffffffffffffffffffffffffffffffffffffffff167f8be0079c531659141344cd1fd0a4f28419497f9722a3daafe3b4186f6b6457e060405160405180910390a35050565b600073ffffffffffffffffffffffffffffffffffffffff168273ffffffffffffffffffffffffffffffffffffffff16036200023e5760006040517fec442f0500000000000000000000000000000000000000000000000000000000815260040162000235919062000aa2565b60405180910390fd5b62000252600083836200025660201b60201c565b5050565b600073ffffffffffffffffffffffffffffffffffffffff168373ffffffffffffffffffffffffffffffffffffffff1603620002ac5780600260008282546200029f919062000aee565b9250508190555062000382565b60008060008573ffffffffffffffffffffffffffffffffffffffff1673ffffffffffffffffffffffffffffffffffffffff168152602001908152602001600020549050818110156200033b578381836040517fe450d38c000000000000000000000000000000000000000000000000000000008152600401620003329392919062000b3a565b60405180910390fd5b8181036000808673ffffffffffffffffffffffffffffffffffffffff1673ffffffffffffffffffffffffffffffffffffffff16815260200190815260200160002081905550505b600073ffffffffffffffffffffffffffffffffffffffff168273ffffffffffffffffffffffffffffffffffffffff1603620003cd57806002600082825403925050819055506200041a565b806000808473ffffffffffffffffffffffffffffffffffffffff1673ffffffffffffffffffffffffffffffffffffffff168152602001908152602001600020600082825401925050819055505b8173ffffffffffffffffffffffffffffffffffffffff168373ffffffffffffffffffffffffffffffffffffffff167fddf252ad1be2c89b69c2b068fc378daa952ba7f163c4a11628f55a4df523b3ef8360405162000479919062000b77565b60405180910390a3505050565b6000604051905090565b600080fd5b600080fd5b600080fd5b600080fd5b6000601f19601f8301169050919050565b7f4e487b7100000000000000000000000000000000000000000000000000000000600052604160045260246000fd5b620004ef82620004a4565b810181811067ffffffffffffffff82111715620005115762000510620004b5565b5b80604052505050565b60006200052662000486565b9050620005348282620004e4565b919050565b600067ffffffffffffffff821115620005575762000556620004b5565b5b6200056282620004a4565b9050602081019050919050565b60005b838110156200058f57808201518184015260208101905062000572565b60008484015250505050565b6000620005b2620005ac8462000539565b6200051a565b905082815260208101848484011115620005d157620005d06200049f565b5b620005de8482856200056f565b509392505050565b600082601f830112620005fe57620005fd6200049a565b5b8151620006108482602086016200059b565b91505092915050565b6000819050919050565b6200062e8162000619565b81146200063a57600080fd5b50565b6000815190506200064e8162000623565b92915050565b600073ffffffffffffffffffffffffffffffffffffffff82169050919050565b6000620006818262000654565b9050919050565b620006938162000674565b81146200069f57600080fd5b50565b600081519050620006b38162000688565b92915050565b60008060008060808587031215620006d657620006d562000490565b5b600085015167ffffffffffffffff811115620006f757620006f662000495565b5b6200070587828801620005e6565b945050602085015167ffffffffffffffff81111562000729576200072862000495565b5b6200073787828801620005e6565b93505060406200074a878288016200063d565b92505060606200075d87828801620006a2565b91505092959194509250565b600081519050919050565b7f4e487b7100000000000000000000000000000000000000000000000000000000600052602260045260246000fd5b60006002820490506001821680620007bc57607f821691505b602082108103620007d257620007d162000774565b5b50919050565b60008190508160005260206000209050919050565b60006020601f8301049050919050565b600082821b905092915050565b6000600883026200083c7fffffffffffffffffffffffffffffffffffffffffffffffffffffffffffffffff82620007fd565b620008488683620007fd565b95508019841693508086168417925050509392505050565b6000819050919050565b60006200088b620008856200087f8462000619565b62000860565b62000619565b9050919050565b6000819050919050565b620008a7836200086a565b620008bf620008b68262000892565b8484546200080a565b825550505050565b600090565b620008d6620008c7565b620008e38184846200089c565b505050565b5b818110156200090b57620008ff600082620008cc565b600181019050620008e9565b5050565b601f8211156200095a576200092481620007d8565b6200092f84620007ed565b810160208510156200093f578190505b620009576200094e85620007ed565b830182620008e8565b50505b505050565b600082821c905092915050565b60006200097f600019846008026200095f565b1980831691505092915050565b60006200099a83836200096c565b9150826002028217905092915050565b620009b58262000769565b67ffffffffffffffff811115620009d157620009d0620004b5565b5b620009dd8254620007a3565b620009ea8282856200090f565b600060209050601f83116001811462000a22576000841562000a0d578287015190505b62000a1985826200098c565b86555062000a89565b601f19841662000a3286620007d8565b60005b8281101562000a5c5784890151825560018201915060208501945060208101905062000a35565b8683101562000a7c578489015162000a78601f8916826200096c565b8355505b6001600288020188555050505b505050505050565b62000a9c8162000674565b82525050565b600060208201905062000ab9600083018462000a91565b92915050565b7f4e487b7100000000000000000000000000000000000000000000000000000000600052601160045260246000fd5b600062000afb8262000619565b915062000b088362000619565b925082820190508082111562000b235762000b2262000abf565b5b92915050565b62000b348162000619565b82525050565b600060608201905062000b51600083018662000a91565b62000b60602083018562000b29565b62000b6f604083018462000b29565b949350505050565b600060208201905062000b8e600083018462000b29565b92915050565b6118268062000ba46000396000f3fe608060405234801561001057600080fd5b50600436106101005760003560e01c806389d8e03e11610097578063abb1dc4411610066578063abb1dc441461029d578063dd62ed3e146102bf578063f2fde38b146102ef578063f6b122931461030b57610100565b806389d8e03e146102155780638da5cb5b1461023157806395d89b411461024f578063a9059cbb1461026d57610100565b8063313ce567116100d3578063313ce567146101a157806342966c68146101bf57806370a08231146101db578063715018a61461020b57610100565b806306fdde0314610105578063095ea7b31461012357806318160ddd1461015357806323b872dd14610171575b600080fd5b61010d610327565b60405161011a919061123c565b60405180910390f35b61013d600480360381019061013891906112f7565b6103b9565b60405161014a9190611352565b60405180910390f35b61015b6103dc565b604051610168919061137c565b60405180910390f35b61018b60048036038101906101869190611397565b6103e6565b6040516101989190611352565b60405180910390f35b6101a9610415565b6040516101b69190611406565b60405180910390f35b6101d960048036038101906101d49190611421565b61041e565b005b6101f560048036038101906101f0919061144e565b6104bc565b604051610202919061137c565b60405180910390f35b610213610504565b005b61022f600480360381019061022a91906112f7565b610518565b005b61023961062e565b604051610246919061148a565b60405180910390f35b610257610658565b604051610264919061123c565b60405180910390f35b610287600480360381019061028291906112f7565b6106ea565b6040516102949190611352565b60405180910390f35b6102a561070d565b6040516102b69594939291906114a5565b60405180910390f35b6102d960048036038101906102d49190611506565b61074e565b6040516102e6919061137c565b60405180910390f35b6103096004803603810190610304919061144e565b6107d5565b005b610325600480360381019061032091906112f7565b61085b565b005b60606003805461033690611575565b80601f016020809104026020016040519081016040528092919081815260200182805461036290611575565b80156103af5780601f10610384576101008083540402835291602001916103af565b820191906000526020600020905b81548152906001019060200180831161039257829003601f168201915b5050505050905090565b6000806103c46109bc565b90506103d18185856109c4565b600191505092915050565b6000600254905090565b6000806103f16109bc565b90506103fe8582856109d6565b610409858585610a6b565b60019150509392505050565b60006012905090565b60008111610461576040517f08c379a0000000000000000000000000000000000000000000000000000000008152600401610458906115f2565b60405180910390fd5b61046b3382610b5f565b3373ffffffffffffffffffffffffffffffffffffffff167fd208d467967f712d32a8be2e10a45f1c397ac0f8292ef34aee4dbfae8fc13344826040516104b1919061137c565b60405180910390a250565b60008060008373ffffffffffffffffffffffffffffffffffffffff1673ffffffffffffffffffffffffffffffffffffffff168152602001908152602001600020549050919050565b61050c610be1565b6105166000610c68565b565b610520610be1565b600073ffffffffffffffffffffffffffffffffffffffff168273ffffffffffffffffffffffffffffffffffffffff160361058f576040517f08c379a00000000000000000000000000000000000000000000000000000000081526004016105869061165e565b60405180910390fd5b600081116105d2576040517f08c379a00000000000000000000000000000000000000000000000000000000081526004016105c9906115f2565b60405180910390fd5b6105dc8282610d2e565b8173ffffffffffffffffffffffffffffffffffffffff167f77c40ff115c1a1a3ae9268168e0716d406848fceb424598c712efaaa2fca4e2582604051610622919061137c565b60405180910390a25050565b6000600560009054906101000a900473ffffffffffffffffffffffffffffffffffffffff16905090565b60606004805461066790611575565b80601f016020809104026020016040519081016040528092919081815260200182805461069390611575565b80156106e05780601f106106b5576101008083540402835291602001916106e0565b820191906000526020600020905b8154815290600101906020018083116106c357829003601f168201915b5050505050905090565b6000806106f56109bc565b9050610702818585610a6b565b600191505092915050565b606080600080600061071d610327565b610725610658565b61072d6103dc565b610735610415565b61073d61062e565b945094509450945094509091929394565b6000600160008473ffffffffffffffffffffffffffffffffffffffff1673ffffffffffffffffffffffffffffffffffffffff16815260200190815260200160002060008373ffffffffffffffffffffffffffffffffffffffff1673ffffffffffffffffffffffffffffffffffffffff16815260200190815260200160002054905092915050565b6107dd610be1565b600073ffffffffffffffffffffffffffffffffffffffff168173ffffffffffffffffffffffffffffffffffffffff160361084f5760006040517f1e4fbdf7000000000000000000000000000000000000000000000000000000008152600401610846919061148a565b60405180910390fd5b61085881610c68565b50565b610863610be1565b600073ffffffffffffffffffffffffffffffffffffffff168273ffffffffffffffffffffffffffffffffffffffff16036108d2576040517f08c379a00000000000000000000000000000000000000000000000000000000081526004016108c9906116ca565b60405180910390fd5b60008111610915576040517f08c379a000000000000000000000000000000000000000000000000000000000815260040161090c906115f2565b60405180910390fd5b8061091f836104bc565b1015610960576040517f08c379a000000000000000000000000000000000000000000000000000000000815260040161095790611736565b60405180910390fd5b61096a8282610b5f565b8173ffffffffffffffffffffffffffffffffffffffff167fd208d467967f712d32a8be2e10a45f1c397ac0f8292ef34aee4dbfae8fc13344826040516109b0919061137c565b60405180910390a25050565b600033905090565b6109d18383836001610db0565b505050565b60006109e2848461074e565b90507fffffffffffffffffffffffffffffffffffffffffffffffffffffffffffffffff811015610a655781811015610a55578281836040517ffb8f41b2000000000000000000000000000000000000000000000000000000008152600401610a4c93929190611756565b60405180910390fd5b610a6484848484036000610db0565b5b50505050565b600073ffffffffffffffffffffffffffffffffffffffff168373ffffffffffffffffffffffffffffffffffffffff1603610add5760006040517f96c6fd1e000000000000000000000000000000000000000000000000000000008152600401610ad4919061148a565b60405180910390fd5b600073ffffffffffffffffffffffffffffffffffffffff168273ffffffffffffffffffffffffffffffffffffffff1603610b4f5760006040517fec442f05000000000000000000000000000000000000000000000000000000008152600401610b46919061148a565b60405180910390fd5b610b5a838383610f87565b505050565b600073ffffffffffffffffffffffffffffffffffffffff168273ffffffffffffffffffffffffffffffffffffffff1603610bd15760006040517f96c6fd1e000000000000000000000000000000000000000000000000000000008152600401610bc8919061148a565b60405180910390fd5b610bdd82600083610f87565b5050565b610be96109bc565b73ffffffffffffffffffffffffffffffffffffffff16610c0761062e565b73ffffffffffffffffffffffffffffffffffffffff1614610c6657610c2a6109bc565b6040517f118cdaa7000000000000000000000000000000000000000000000000000000008152600401610c5d919061148a565b60405180910390fd5b565b6000600560009054906101000a900473ffffffffffffffffffffffffffffffffffffffff16905081600560006101000a81548173ffffffffffffffffffffffffffffffffffffffff021916908373ffffffffffffffffffffffffffffffffffffffff1602179055508173ffffffffffffffffffffffffffffffffffffffff168173ffffffffffffffffffffffffffffffffffffffff167f8be0079c531659141344cd1fd0a4f28419497f9722a3daafe3b4186f6b6457e060405160405180910390a35050565b600073ffffffffffffffffffffffffffffffffffffffff168273ffffffffffffffffffffffffffffffffffffffff1603610da05760006040517fec442f05000000000000000000000000000000000000000000000000000000008152600401610d97919061148a565b60405180910390fd5b610dac60008383610f87565b5050565b600073ffffffffffffffffffffffffffffffffffffffff168473ffffffffffffffffffffffffffffffffffffffff1603610e225760006040517fe602df05000000000000000000000000000000000000000000000000000000008152600401610e19919061148a565b60405180910390fd5b600073ffffffffffffffffffffffffffffffffffffffff168373ffffffffffffffffffffffffffffffffffffffff1603610e945760006040517f94280d62000000000000000000000000000000000000000000000000000000008152600401610e8b919061148a565b60405180910390fd5b81600160008673ffffffffffffffffffffffffffffffffffffffff1673ffffffffffffffffffffffffffffffffffffffff16815260200190815260200160002060008573ffffffffffffffffffffffffffffffffffffffff1673ffffffffffffffffffffffffffffffffffffffff168152602001908152602001600020819055508015610f81578273ffffffffffffffffffffffffffffffffffffffff168473ffffffffffffffffffffffffffffffffffffffff167f8c5be1e5ebec7d5bd14f71427d1e84f3dd0314c0f7b2291e5b200ac8c7c3b92584604051610f78919061137c565b60405180910390a35b50505050565b600073ffffffffffffffffffffffffffffffffffffffff168373ffffffffffffffffffffffffffffffffffffffff1603610fd9578060026000828254610fcd91906117bc565b925050819055506110ac565b60008060008573ffffffffffffffffffffffffffffffffffffffff1673ffffffffffffffffffffffffffffffffffffffff16815260200190815260200160002054905081811015611065578381836040517fe450d38c00000000000000000000000000000000000000000000000000000000815260040161105c93929190611756565b60405180910390fd5b8181036000808673ffffffffffffffffffffffffffffffffffffffff1673ffffffffffffffffffffffffffffffffffffffff16815260200190815260200160002081905550505b600073ffffffffffffffffffffffffffffffffffffffff168273ffffffffffffffffffffffffffffffffffffffff16036110f55780600260008282540392505081905550611142565b806000808473ffffffffffffffffffffffffffffffffffffffff1673ffffffffffffffffffffffffffffffffffffffff168152602001908152602001600020600082825401925050819055505b8173ffffffffffffffffffffffffffffffffffffffff168373ffffffffffffffffffffffffffffffffffffffff167fddf252ad1be2c89b69c2b068fc378daa952ba7f163c4a11628f55a4df523b3ef8360405161119f919061137c565b60405180910390a3505050565b600081519050919050565b600082825260208201905092915050565b60005b838110156111e65780820151818401526020810190506111cb565b60008484015250505050565b6000601f19601f8301169050919050565b600061120e826111ac565b61121881856111b7565b93506112288185602086016111c8565b611231816111f2565b840191505092915050565b600060208201905081810360008301526112568184611203565b905092915050565b600080fd5b600073ffffffffffffffffffffffffffffffffffffffff82169050919050565b600061128e82611263565b9050919050565b61129e81611283565b81146112a957600080fd5b50565b6000813590506112bb81611295565b92915050565b6000819050919050565b6112d4816112c1565b81146112df57600080fd5b50565b6000813590506112f1816112cb565b92915050565b6000806040838503121561130e5761130d61125e565b5b600061131c858286016112ac565b925050602061132d858286016112e2565b9150509250929050565b60008115159050919050565b61134c81611337565b82525050565b60006020820190506113676000830184611343565b92915050565b611376816112c1565b82525050565b6000602082019050611391600083018461136d565b92915050565b6000806000606084860312156113b0576113af61125e565b5b60006113be868287016112ac565b93505060206113cf868287016112ac565b92505060406113e0868287016112e2565b9150509250925092565b600060ff82169050919050565b611400816113ea565b82525050565b600060208201905061141b60008301846113f7565b92915050565b6000602082840312156114375761143661125e565b5b6000611445848285016112e2565b91505092915050565b6000602082840312156114645761146361125e565b5b6000611472848285016112ac565b91505092915050565b61148481611283565b82525050565b600060208201905061149f600083018461147b565b92915050565b600060a08201905081810360008301526114bf8188611203565b905081810360208301526114d38187611203565b90506114e2604083018661136d565b6114ef60608301856113f7565b6114fc608083018461147b565b9695505050505050565b6000806040838503121561151d5761151c61125e565b5b600061152b858286016112ac565b925050602061153c858286016112ac565b9150509250929050565b7f4e487b7100000000000000000000000000000000000000000000000000000000600052602260045260246000fd5b6000600282049050600182168061158d57607f821691505b6020821081036115a05761159f611546565b5b50919050565b7f416d6f756e74206d757374206265203e20300000000000000000000000000000600082015250565b60006115dc6012836111b7565b91506115e7826115a6565b602082019050919050565b6000602082019050818103600083015261160b816115cf565b9050919050565b7f43616e6e6f74206d696e7420746f207a65726f20616464726573730000000000600082015250565b6000611648601b836111b7565b915061165382611612565b602082019050919050565b600060208201905081810360008301526116778161163b565b9050919050565b7f43616e6e6f74206275726e2066726f6d207a65726f2061646472657373000000600082015250565b60006116b4601d836111b7565b91506116bf8261167e565b602082019050919050565b600060208201905081810360008301526116e3816116a7565b9050919050565b7f496e73756666696369656e742062616c616e636520746f206275726e00000000600082015250565b6000611720601c836111b7565b915061172b826116ea565b602082019050919050565b6000602082019050818103600083015261174f81611713565b9050919050565b600060608201905061176b600083018661147b565b611778602083018561136d565b611785604083018461136d565b949350505050565b7f4e487b7100000000000000000000000000000000000000000000000000000000600052601160045260246000fd5b60006117c7826112c1565b91506117d2836112c1565b92508282019050808211156117ea576117e961178d565b5b9291505056fea26469706673582212204589c49cbafa973afcd3c692c266d8d1a988d932b66411c2d00e84d617014a3164736f6c63430008180033",
  "linkReferences": {},
  "deployedLinkReferences": {}
}