{
  "_format": "hh-sol-artifact-1",
  "contractName": "Marketplace",
  "sourceName": "contracts/Marketplace.sol",
  "abi": [
    {
      "inputs": [
        {
          "internalType": "address",
          "name": "_nftContract",
          "type": "address"
        }
      ],
      "stateMutability": "nonpayable",
      "type": "constructor"
    },
    {
      "inputs": [
        {
          "internalType": "address",
          "name": "owner",
          "type": "address"
        }
      ],
      "name": "OwnableInvalidOwner",
      "type": "error"
    },
    {
      "inputs": [
        {
          "internalType": "address",
          "name": "account",
          "type": "address"
        }
      ],
      "name": "OwnableUnauthorizedAccount",
      "type": "error"
    },
    {
      "inputs": [],
      "name": "ReentrancyGuardReentrantCall",
      "type": "error"
    },
    {
      "anonymous": false,
      "inputs": [
        {
          "indexed": true,
          "internalType": "uint256",
          "name": "tokenId",
          "type": "uint256"
        },
        {
          "indexed": true,
          "internalType": "address",
          "name": "fractionalToken",
          "type": "address"
        },
        {
          "indexed": false,
          "internalType": "uint256",
          "name": "amount",
          "type": "uint256"
        },
        {
          "indexed": false,
          "internalType": "uint256",
          "name": "pricePerToken",
          "type": "uint256"
        },
        {
          "indexed": true,
          "internalType": "address",
          "name": "seller",
          "type": "address"
        }
      ],
      "name": "FractionalListed",
      "type": "event"
    },
    {
      "anonymous": false,
      "inputs": [
        {
          "indexed": true,
          "internalType": "uint256",
          "name": "tokenId",
          "type": "uint256"
        },
        {
          "indexed": true,
          "internalType": "address",
          "name": "seller",
          "type": "address"
        }
      ],
      "name": "FractionalListingCancelled",
      "type": "event"
    },
    {
      "anonymous": false,
      "inputs": [
        {
          "indexed": true,
          "internalType": "uint256",
          "name": "tokenId",
          "type": "uint256"
        },
        {
          "indexed": false,
          "internalType": "uint256",
          "name": "amount",
          "type": "uint256"
        },
        {
          "indexed": false,
          "internalType": "uint256",
          "name": "totalPrice",
          "type": "uint256"
        },
        {
          "indexed": true,
          "internalType": "address",
          "name": "buyer",
          "type": "address"
        },
        {
          "indexed": true,
          "internalType": "address",
          "name": "seller",
          "type": "address"
        }
      ],
      "name": "FractionalSold",
      "type": "event"
    },
    {
      "anonymous": false,
      "inputs": [
        {
          "indexed": true,
          "internalType": "uint256",
          "name": "tokenId",
          "type": "uint256"
        },
        {
          "indexed": false,
          "internalType": "uint256",
          "name": "price",
          "type": "uint256"
        },
        {
          "indexed": true,
          "internalType": "address",
          "name": "seller",
          "type": "address"
        }
      ],
      "name": "NFTListed",
      "type": "event"
    },
    {
      "anonymous": false,
      "inputs": [
        {
          "indexed": true,
          "internalType": "uint256",
          "name": "tokenId",
          "type": "uint256"
        },
        {
          "indexed": true,
          "internalType": "address",
          "name": "seller",
          "type": "address"
        }
      ],
      "name": "NFTListingCancelled",
      "type": "event"
    },
    {
      "anonymous": false,
      "inputs": [
        {
          "indexed": true,
          "internalType": "uint256",
          "name": "tokenId",
          "type": "uint256"
        },
        {
          "indexed": false,
          "internalType": "uint256",
          "name": "price",
          "type": "uint256"
        },
        {
          "indexed": true,
          "internalType": "address",
          "name": "buyer",
          "type": "address"
        },
        {
          "indexed": true,
          "internalType": "address",
          "name": "seller",
          "type": "address"
        }
      ],
      "name": "NFTSold",
      "type": "event"
    },
    {
      "anonymous": false,
      "inputs": [
        {
          "indexed": true,
          "internalType": "address",
          "name": "previousOwner",
          "type": "address"
        },
        {
          "indexed": true,
          "internalType": "address",
          "name": "newOwner",
          "type": "address"
        }
      ],
      "name": "OwnershipTransferred",
      "type": "event"
    },
    {
      "inputs": [
        {
          "internalType": "uint256",
          "name": "tokenId",
          "type": "uint256"
        },
        {
          "internalType": "uint256",
          "name": "amount",
          "type": "uint256"
        }
      ],
      "name": "buyFraction",
      "outputs": [],
      "stateMutability": "payable",
      "type": "function"
    },
    {
      "inputs": [
        {
          "internalType": "uint256",
          "name": "tokenId",
          "type": "uint256"
        }
      ],
      "name": "buyNFT",
      "outputs": [],
      "stateMutability": "payable",
      "type": "function"
    },
    {
      "inputs": [
        {
          "internalType": "uint256",
          "name": "tokenId",
          "type": "uint256"
        }
      ],
      "name": "cancelFractionalListing",
      "outputs": [],
      "stateMutability": "nonpayable",
      "type": "function"
    },
    {
      "inputs": [
        {
          "internalType": "uint256",
          "name": "tokenId",
          "type": "uint256"
        }
      ],
      "name": "cancelNFTListing",
      "outputs": [],
      "stateMutability": "nonpayable",
      "type": "function"
    },
    {
      "inputs": [],
      "name": "emergencyWithdraw",
      "outputs": [],
      "stateMutability": "nonpayable",
      "type": "function"
    },
    {
      "inputs": [],
      "name": "feeRecipient",
      "outputs": [
        {
          "internalType": "address",
          "name": "",
          "type": "address"
        }
      ],
      "stateMutability": "view",
      "type": "function"
    },
    {
      "inputs": [
        {
          "internalType": "uint256",
          "name": "",
          "type": "uint256"
        }
      ],
      "name": "fractionalListings",
      "outputs": [
        {
          "internalType": "address",
          "name": "seller",
          "type": "address"
        },
        {
          "internalType": "uint256",
          "name": "pricePerToken",
          "type": "uint256"
        },
        {
          "internalType": "address",
          "name": "fractionalToken",
          "type": "address"
        },
        {
          "internalType": "uint256",
          "name": "amount",
          "type": "uint256"
        },
        {
          "internalType": "bool",
          "name": "active",
          "type": "bool"
        }
      ],
      "stateMutability": "view",
      "type": "function"
    },
    {
      "inputs": [
        {
          "internalType": "uint256",
          "name": "tokenId",
          "type": "uint256"
        }
      ],
      "name": "getFractionalListing",
      "outputs": [
        {
          "components": [
            {
              "internalType": "address",
              "name": "seller",
              "type": "address"
            },
            {
              "internalType": "uint256",
              "name": "pricePerToken",
              "type": "uint256"
            },
            {
              "internalType": "address",
              "name": "fractionalToken",
              "type": "address"
            },
            {
              "internalType": "uint256",
              "name": "amount",
              "type": "uint256"
            },
            {
              "internalType": "bool",
              "name": "active",
              "type": "bool"
            }
          ],
          "internalType": "struct Marketplace.FractionalListing",
          "name": "",
          "type": "tuple"
        }
      ],
      "stateMutability": "view",
      "type": "function"
    },
    {
      "inputs": [
        {
          "internalType": "uint256",
          "name": "tokenId",
          "type": "uint256"
        }
      ],
      "name": "getNFTListing",
      "outputs": [
        {
          "components": [
            {
              "internalType": "address",
              "name": "seller",
              "type": "address"
            },
            {
              "internalType": "uint256",
              "name": "price",
              "type": "uint256"
            },
            {
              "internalType": "bool",
              "name": "active",
              "type": "bool"
            }
          ],
          "internalType": "struct Marketplace.NFTListing",
          "name": "",
          "type": "tuple"
        }
      ],
      "stateMutability": "view",
      "type": "function"
    },
    {
      "inputs": [
        {
          "internalType": "uint256",
          "name": "tokenId",
          "type": "uint256"
        },
        {
          "internalType": "address",
          "name": "fractionalToken",
          "type": "address"
        },
        {
          "internalType": "uint256",
          "name": "amount",
          "type": "uint256"
        },
        {
          "internalType": "uint256",
          "name": "pricePerToken",
          "type": "uint256"
        }
      ],
      "name": "listFraction",
      "outputs": [],
      "stateMutability": "nonpayable",
      "type": "function"
    },
    {
      "inputs": [
        {
          "internalType": "uint256",
          "name": "tokenId",
          "type": "uint256"
        },
        {
          "internalType": "uint256",
          "name": "price",
          "type": "uint256"
        }
      ],
      "name": "listNFT",
      "outputs": [],
      "stateMutability": "nonpayable",
      "type": "function"
    },
    {
      "inputs": [],
      "name": "nftContract",
      "outputs": [
        {
          "internalType": "contract RWANFT",
          "name": "",
          "type": "address"
        }
      ],
      "stateMutability": "view",
      "type": "function"
    },
    {
      "inputs": [
        {
          "internalType": "uint256",
          "name": "",
          "type": "uint256"
        }
      ],
      "name": "nftListings",
      "outputs": [
        {
          "internalType": "address",
          "name": "seller",
          "type": "address"
        },
        {
          "internalType": "uint256",
          "name": "price",
          "type": "uint256"
        },
        {
          "internalType": "bool",
          "name": "active",
          "type": "bool"
        }
      ],
      "stateMutability": "view",
      "type": "function"
    },
    {
      "inputs": [],
      "name": "owner",
      "outputs": [
        {
          "internalType": "address",
          "name": "",
          "type": "address"
        }
      ],
      "stateMutability": "view",
      "type": "function"
    },
    {
      "inputs": [],
      "name": "platformFee",
      "outputs": [
        {
          "internalType": "uint256",
          "name": "",
          "type": "uint256"
        }
      ],
      "stateMutability": "view",
      "type": "function"
    },
    {
      "inputs": [],
      "name": "renounceOwnership",
      "outputs": [],
      "stateMutability": "nonpayable",
      "type": "function"
    },
    {
      "inputs": [
        {
          "internalType": "address",
          "name": "_feeRecipient",
          "type": "address"
        }
      ],
      "name": "setFeeRecipient",
      "outputs": [],
      "stateMutability": "nonpayable",
      "type": "function"
    },
    {
      "inputs": [
        {
          "internalType": "uint256",
          "name": "_platformFee",
          "type": "uint256"
        }
      ],
      "name": "setPlatformFee",
      "outputs": [],
      "stateMutability": "nonpayable",
      "type": "function"
    },
    {
      "inputs": [
        {
          "internalType": "address",
          "name": "newOwner",
          "type": "address"
        }
      ],
      "name": "transferOwnership",
      "outputs": [],
      "stateMutability": "nonpayable",
      "type": "function"
    }
  ],
  "bytecode": "0x608060405260fa6005553480156200001657600080fd5b5060405162002e6338038062002e6383398181016040528101906200003c919062000282565b33600073ffffffffffffffffffffffffffffffffffffffff168173ffffffffffffffffffffffffffffffffffffffff1603620000b25760006040517f1e4fbdf7000000000000000000000000000000000000000000000000000000008152600401620000a99190620002c5565b60405180910390fd5b620000c3816200015460201b60201c565b506001808190555080600460006101000a81548173ffffffffffffffffffffffffffffffffffffffff021916908373ffffffffffffffffffffffffffffffffffffffff16021790555033600660006101000a81548173ffffffffffffffffffffffffffffffffffffffff021916908373ffffffffffffffffffffffffffffffffffffffff16021790555050620002e2565b60008060009054906101000a900473ffffffffffffffffffffffffffffffffffffffff169050816000806101000a81548173ffffffffffffffffffffffffffffffffffffffff021916908373ffffffffffffffffffffffffffffffffffffffff1602179055508173ffffffffffffffffffffffffffffffffffffffff168173ffffffffffffffffffffffffffffffffffffffff167f8be0079c531659141344cd1fd0a4f28419497f9722a3daafe3b4186f6b6457e060405160405180910390a35050565b600080fd5b600073ffffffffffffffffffffffffffffffffffffffff82169050919050565b60006200024a826200021d565b9050919050565b6200025c816200023d565b81146200026857600080fd5b50565b6000815190506200027c8162000251565b92915050565b6000602082840312156200029b576200029a62000218565b5b6000620002ab848285016200026b565b91505092915050565b620002bf816200023d565b82525050565b6000602082019050620002dc6000830184620002b4565b92915050565b612b7180620002f26000396000f3fe6080604052600436106101145760003560e01c80638da5cb5b116100a0578063d56d229d11610064578063d56d229d14610373578063db2e21bc1461039e578063e74b981b146103b5578063f2fde38b146103de578063fa5e480e1461040757610114565b80638da5cb5b1461029957806394383f14146102c4578063aaad2eab146102ed578063aebc010014610316578063d40b02141461035757610114565b806351ed8288116100e757806351ed8288146101d5578063715018a6146101f15780637b794fdd146102085780637c5bb03d146102315780638043c3f41461027057610114565b80630ea59c4b1461011957806312e8e2c31461015657806326232a2e1461017f57806346904840146101aa575b600080fd5b34801561012557600080fd5b50610140600480360381019061013b9190611df4565b610444565b60405161014d9190611ece565b60405180910390f35b34801561016257600080fd5b5061017d60048036038101906101789190611df4565b6104ec565b005b34801561018b57600080fd5b50610194610543565b6040516101a19190611ef8565b60405180910390f35b3480156101b657600080fd5b506101bf610549565b6040516101cc9190611f22565b60405180910390f35b6101ef60048036038101906101ea9190611df4565b61056f565b005b3480156101fd57600080fd5b506102066108c0565b005b34801561021457600080fd5b5061022f600480360381019061022a9190611f69565b6108d4565b005b34801561023d57600080fd5b5061025860048036038101906102539190611df4565b610ca3565b60405161026793929190611fdf565b60405180910390f35b34801561027c57600080fd5b5061029760048036038101906102929190611df4565b610cfa565b005b3480156102a557600080fd5b506102ae610e59565b6040516102bb9190611f22565b60405180910390f35b3480156102d057600080fd5b506102eb60048036038101906102e69190612016565b610e82565b005b3480156102f957600080fd5b50610314600480360381019061030f9190611df4565b6112f4565b005b34801561032257600080fd5b5061033d60048036038101906103389190611df4565b611453565b60405161034e959493929190612056565b60405180910390f35b610371600480360381019061036c9190612016565b6114d6565b005b34801561037f57600080fd5b506103886118ba565b6040516103959190612108565b60405180910390f35b3480156103aa57600080fd5b506103b36118e0565b005b3480156103c157600080fd5b506103dc60048036038101906103d79190612123565b611938565b005b3480156103ea57600080fd5b5061040560048036038101906104009190612123565b6119f3565b005b34801561041357600080fd5b5061042e60048036038101906104299190611df4565b611a79565b60405161043b91906121b8565b60405180910390f35b61044c611d23565b600260008381526020019081526020016000206040518060600160405290816000820160009054906101000a900473ffffffffffffffffffffffffffffffffffffffff1673ffffffffffffffffffffffffffffffffffffffff1673ffffffffffffffffffffffffffffffffffffffff168152602001600182015481526020016002820160009054906101000a900460ff1615151515815250509050919050565b6104f4611b81565b6103e8811115610539576040517f08c379a000000000000000000000000000000000000000000000000000000000815260040161053090612230565b60405180910390fd5b8060058190555050565b60055481565b600660009054906101000a900473ffffffffffffffffffffffffffffffffffffffff1681565b610577611c08565b60006002600083815260200190815260200160002090508060020160009054906101000a900460ff166105df576040517f08c379a00000000000000000000000000000000000000000000000000000000081526004016105d69061229c565b60405180910390fd5b8060010154341015610626576040517f08c379a000000000000000000000000000000000000000000000000000000000815260040161061d90612308565b60405180910390fd5b60008160000160009054906101000a900473ffffffffffffffffffffffffffffffffffffffff16905060008260010154905060006127106005548361066b9190612357565b61067591906123c8565b90506000818361068591906123f9565b905060008560020160006101000a81548160ff021916908315150217905550600460009054906101000a900473ffffffffffffffffffffffffffffffffffffffff1673ffffffffffffffffffffffffffffffffffffffff166342842e0e8533896040518463ffffffff1660e01b81526004016107039392919061242d565b600060405180830381600087803b15801561071d57600080fd5b505af1158015610731573d6000803e3d6000fd5b5050505060008211156107a857600660009054906101000a900473ffffffffffffffffffffffffffffffffffffffff1673ffffffffffffffffffffffffffffffffffffffff166108fc839081150290604051600060405180830381858888f193505050501580156107a6573d6000803e3d6000fd5b505b8373ffffffffffffffffffffffffffffffffffffffff166108fc829081150290604051600060405180830381858888f193505050501580156107ee573d6000803e3d6000fd5b508234111561084a573373ffffffffffffffffffffffffffffffffffffffff166108fc843461081d91906123f9565b9081150290604051600060405180830381858888f19350505050158015610848573d6000803e3d6000fd5b505b8373ffffffffffffffffffffffffffffffffffffffff163373ffffffffffffffffffffffffffffffffffffffff16877f2820044bbebd591ee7d08b7d81dd01945a1a32706da693a946e532d6d9884258866040516108a89190611ef8565b60405180910390a450505050506108bd611c4e565b50565b6108c8611b81565b6108d26000611c57565b565b6000821180156108e45750600081115b610923576040517f08c379a000000000000000000000000000000000000000000000000000000000815260040161091a906124b0565b60405180910390fd5b6003600085815260200190815260200160002060040160009054906101000a900460ff1615610987576040517f08c379a000000000000000000000000000000000000000000000000000000000815260040161097e90612542565b60405180910390fd5b6000839050828173ffffffffffffffffffffffffffffffffffffffff166370a08231336040518263ffffffff1660e01b81526004016109c69190611f22565b602060405180830381865afa1580156109e3573d6000803e3d6000fd5b505050506040513d601f19601f82011682018060405250810190610a079190612577565b1015610a48576040517f08c379a0000000000000000000000000000000000000000000000000000000008152600401610a3f906125f0565b60405180910390fd5b828173ffffffffffffffffffffffffffffffffffffffff1663dd62ed3e33306040518363ffffffff1660e01b8152600401610a84929190612610565b602060405180830381865afa158015610aa1573d6000803e3d6000fd5b505050506040513d601f19601f82011682018060405250810190610ac59190612577565b1015610b06576040517f08c379a0000000000000000000000000000000000000000000000000000000008152600401610afd906126ab565b60405180910390fd5b6040518060a001604052803373ffffffffffffffffffffffffffffffffffffffff1681526020018381526020018573ffffffffffffffffffffffffffffffffffffffff168152602001848152602001600115158152506003600087815260200190815260200160002060008201518160000160006101000a81548173ffffffffffffffffffffffffffffffffffffffff021916908373ffffffffffffffffffffffffffffffffffffffff1602179055506020820151816001015560408201518160020160006101000a81548173ffffffffffffffffffffffffffffffffffffffff021916908373ffffffffffffffffffffffffffffffffffffffff1602179055506060820151816003015560808201518160040160006101000a81548160ff0219169083151502179055509050503373ffffffffffffffffffffffffffffffffffffffff168473ffffffffffffffffffffffffffffffffffffffff16867f8e0bf1290f46bdee3e716f6da7e55a2d549da6e54832278367c2f9598943afb88686604051610c949291906126cb565b60405180910390a45050505050565b60026020528060005260406000206000915090508060000160009054906101000a900473ffffffffffffffffffffffffffffffffffffffff16908060010154908060020160009054906101000a900460ff16905083565b60006003600083815260200190815260200160002090508060040160009054906101000a900460ff16610d62576040517f08c379a0000000000000000000000000000000000000000000000000000000008152600401610d5990612740565b60405180910390fd5b3373ffffffffffffffffffffffffffffffffffffffff168160000160009054906101000a900473ffffffffffffffffffffffffffffffffffffffff1673ffffffffffffffffffffffffffffffffffffffff1614610df4576040517f08c379a0000000000000000000000000000000000000000000000000000000008152600401610deb906127ac565b60405180910390fd5b60008160040160006101000a81548160ff0219169083151502179055503373ffffffffffffffffffffffffffffffffffffffff16827f9e04325f63adc5ba73e8b3ade23ddf218b8476d426f13771f6dd8320276c06ba60405160405180910390a35050565b60008060009054906101000a900473ffffffffffffffffffffffffffffffffffffffff16905090565b60008111610ec5576040517f08c379a0000000000000000000000000000000000000000000000000000000008152600401610ebc90612818565b60405180910390fd5b6000600460009054906101000a900473ffffffffffffffffffffffffffffffffffffffff1673ffffffffffffffffffffffffffffffffffffffff16636352211e846040518263ffffffff1660e01b8152600401610f229190611ef8565b602060405180830381865afa158015610f3f573d6000803e3d6000fd5b505050506040513d601f19601f82011682018060405250810190610f63919061284d565b90508073ffffffffffffffffffffffffffffffffffffffff163373ffffffffffffffffffffffffffffffffffffffff1614610fd3576040517f08c379a0000000000000000000000000000000000000000000000000000000008152600401610fca906128c6565b60405180910390fd5b6002600084815260200190815260200160002060020160009054906101000a900460ff1615611037576040517f08c379a000000000000000000000000000000000000000000000000000000000815260040161102e90612932565b60405180910390fd5b3073ffffffffffffffffffffffffffffffffffffffff16600460009054906101000a900473ffffffffffffffffffffffffffffffffffffffff1673ffffffffffffffffffffffffffffffffffffffff1663081812fc856040518263ffffffff1660e01b81526004016110a99190611ef8565b602060405180830381865afa1580156110c6573d6000803e3d6000fd5b505050506040513d601f19601f820116820180604052508101906110ea919061284d565b73ffffffffffffffffffffffffffffffffffffffff1614806111a65750600460009054906101000a900473ffffffffffffffffffffffffffffffffffffffff1673ffffffffffffffffffffffffffffffffffffffff1663e985e9c582306040518363ffffffff1660e01b8152600401611164929190612610565b602060405180830381865afa158015611181573d6000803e3d6000fd5b505050506040513d601f19601f820116820180604052508101906111a5919061297e565b5b6111e5576040517f08c379a00000000000000000000000000000000000000000000000000000000081526004016111dc90612a1d565b60405180910390fd5b60405180606001604052803373ffffffffffffffffffffffffffffffffffffffff168152602001838152602001600115158152506002600085815260200190815260200160002060008201518160000160006101000a81548173ffffffffffffffffffffffffffffffffffffffff021916908373ffffffffffffffffffffffffffffffffffffffff1602179055506020820151816001015560408201518160020160006101000a81548160ff0219169083151502179055509050503373ffffffffffffffffffffffffffffffffffffffff16837fd2ab19646d6f9fdd37206f962b4ebaab8a4a23ad87f7695e7e1736803cb8bf74846040516112e79190611ef8565b60405180910390a3505050565b60006002600083815260200190815260200160002090508060020160009054906101000a900460ff1661135c576040517f08c379a00000000000000000000000000000000000000000000000000000000081526004016113539061229c565b60405180910390fd5b3373ffffffffffffffffffffffffffffffffffffffff168160000160009054906101000a900473ffffffffffffffffffffffffffffffffffffffff1673ffffffffffffffffffffffffffffffffffffffff16146113ee576040517f08c379a00000000000000000000000000000000000000000000000000000000081526004016113e5906127ac565b60405180910390fd5b60008160020160006101000a81548160ff0219169083151502179055503373ffffffffffffffffffffffffffffffffffffffff16827f60d684fb8e0e3f4ae9b51912760d57e90172fe4eac3d2faed8f0b97fa6030cdb60405160405180910390a35050565b60036020528060005260406000206000915090508060000160009054906101000a900473ffffffffffffffffffffffffffffffffffffffff16908060010154908060020160009054906101000a900473ffffffffffffffffffffffffffffffffffffffff16908060030154908060040160009054906101000a900460ff16905085565b6114de611c08565b60006003600084815260200190815260200160002090508060040160009054906101000a900460ff16611546576040517f08c379a000000000000000000000000000000000000000000000000000000000815260040161153d90612740565b60405180910390fd5b806003015482111561158d576040517f08c379a000000000000000000000000000000000000000000000000000000000815260040161158490612aaf565b60405180910390fd5b600081600101548361159f9190612357565b9050803410156115e4576040517f08c379a00000000000000000000000000000000000000000000000000000000081526004016115db90612308565b60405180910390fd5b60008260000160009054906101000a900473ffffffffffffffffffffffffffffffffffffffff1690506000612710600554846116209190612357565b61162a91906123c8565b90506000818461163a91906123f9565b90508585600301600082825461165091906123f9565b9250508190555060008560030154036116815760008560040160006101000a81548160ff0219169083151502179055505b60008560020160009054906101000a900473ffffffffffffffffffffffffffffffffffffffff1690508073ffffffffffffffffffffffffffffffffffffffff166323b872dd85338a6040518463ffffffff1660e01b81526004016116e79392919061242d565b6020604051808303816000875af1158015611706573d6000803e3d6000fd5b505050506040513d601f19601f8201168201806040525081019061172a919061297e565b50600083111561179e57600660009054906101000a900473ffffffffffffffffffffffffffffffffffffffff1673ffffffffffffffffffffffffffffffffffffffff166108fc849081150290604051600060405180830381858888f1935050505015801561179c573d6000803e3d6000fd5b505b8373ffffffffffffffffffffffffffffffffffffffff166108fc839081150290604051600060405180830381858888f193505050501580156117e4573d6000803e3d6000fd5b5084341115611840573373ffffffffffffffffffffffffffffffffffffffff166108fc863461181391906123f9565b9081150290604051600060405180830381858888f1935050505015801561183e573d6000803e3d6000fd5b505b8373ffffffffffffffffffffffffffffffffffffffff163373ffffffffffffffffffffffffffffffffffffffff16897f415c687f9f5f2970a159a231eb814b08d9c21839295cf7ee555d2316a7cd58938a896040516118a09291906126cb565b60405180910390a45050505050506118b6611c4e565b5050565b600460009054906101000a900473ffffffffffffffffffffffffffffffffffffffff1681565b6118e8611b81565b6118f0610e59565b73ffffffffffffffffffffffffffffffffffffffff166108fc479081150290604051600060405180830381858888f19350505050158015611935573d6000803e3d6000fd5b50565b611940611b81565b600073ffffffffffffffffffffffffffffffffffffffff168173ffffffffffffffffffffffffffffffffffffffff16036119af576040517f08c379a00000000000000000000000000000000000000000000000000000000081526004016119a690612b1b565b60405180910390fd5b80600660006101000a81548173ffffffffffffffffffffffffffffffffffffffff021916908373ffffffffffffffffffffffffffffffffffffffff16021790555050565b6119fb611b81565b600073ffffffffffffffffffffffffffffffffffffffff168173ffffffffffffffffffffffffffffffffffffffff1603611a6d5760006040517f1e4fbdf7000000000000000000000000000000000000000000000000000000008152600401611a649190611f22565b60405180910390fd5b611a7681611c57565b50565b611a81611d5c565b600360008381526020019081526020016000206040518060a00160405290816000820160009054906101000a900473ffffffffffffffffffffffffffffffffffffffff1673ffffffffffffffffffffffffffffffffffffffff1673ffffffffffffffffffffffffffffffffffffffff168152602001600182015481526020016002820160009054906101000a900473ffffffffffffffffffffffffffffffffffffffff1673ffffffffffffffffffffffffffffffffffffffff1673ffffffffffffffffffffffffffffffffffffffff168152602001600382015481526020016004820160009054906101000a900460ff1615151515815250509050919050565b611b89611d1b565b73ffffffffffffffffffffffffffffffffffffffff16611ba7610e59565b73ffffffffffffffffffffffffffffffffffffffff1614611c0657611bca611d1b565b6040517f118cdaa7000000000000000000000000000000000000000000000000000000008152600401611bfd9190611f22565b60405180910390fd5b565b600260015403611c44576040517f3ee5aeb500000000000000000000000000000000000000000000000000000000815260040160405180910390fd5b6002600181905550565b60018081905550565b60008060009054906101000a900473ffffffffffffffffffffffffffffffffffffffff169050816000806101000a81548173ffffffffffffffffffffffffffffffffffffffff021916908373ffffffffffffffffffffffffffffffffffffffff1602179055508173ffffffffffffffffffffffffffffffffffffffff168173ffffffffffffffffffffffffffffffffffffffff167f8be0079c531659141344cd1fd0a4f28419497f9722a3daafe3b4186f6b6457e060405160405180910390a35050565b600033905090565b6040518060600160405280600073ffffffffffffffffffffffffffffffffffffffff168152602001600081526020016000151581525090565b6040518060a00160405280600073ffffffffffffffffffffffffffffffffffffffff16815260200160008152602001600073ffffffffffffffffffffffffffffffffffffffff168152602001600081526020016000151581525090565b600080fd5b6000819050919050565b611dd181611dbe565b8114611ddc57600080fd5b50565b600081359050611dee81611dc8565b92915050565b600060208284031215611e0a57611e09611db9565b5b6000611e1884828501611ddf565b91505092915050565b600073ffffffffffffffffffffffffffffffffffffffff82169050919050565b6000611e4c82611e21565b9050919050565b611e5c81611e41565b82525050565b611e6b81611dbe565b82525050565b60008115159050919050565b611e8681611e71565b82525050565b606082016000820151611ea26000850182611e53565b506020820151611eb56020850182611e62565b506040820151611ec86040850182611e7d565b50505050565b6000606082019050611ee36000830184611e8c565b92915050565b611ef281611dbe565b82525050565b6000602082019050611f0d6000830184611ee9565b92915050565b611f1c81611e41565b82525050565b6000602082019050611f376000830184611f13565b92915050565b611f4681611e41565b8114611f5157600080fd5b50565b600081359050611f6381611f3d565b92915050565b60008060008060808587031215611f8357611f82611db9565b5b6000611f9187828801611ddf565b9450506020611fa287828801611f54565b9350506040611fb387828801611ddf565b9250506060611fc487828801611ddf565b91505092959194509250565b611fd981611e71565b82525050565b6000606082019050611ff46000830186611f13565b6120016020830185611ee9565b61200e6040830184611fd0565b949350505050565b6000806040838503121561202d5761202c611db9565b5b600061203b85828601611ddf565b925050602061204c85828601611ddf565b9150509250929050565b600060a08201905061206b6000830188611f13565b6120786020830187611ee9565b6120856040830186611f13565b6120926060830185611ee9565b61209f6080830184611fd0565b9695505050505050565b6000819050919050565b60006120ce6120c96120c484611e21565b6120a9565b611e21565b9050919050565b60006120e0826120b3565b9050919050565b60006120f2826120d5565b9050919050565b612102816120e7565b82525050565b600060208201905061211d60008301846120f9565b92915050565b60006020828403121561213957612138611db9565b5b600061214784828501611f54565b91505092915050565b60a0820160008201516121666000850182611e53565b5060208201516121796020850182611e62565b50604082015161218c6040850182611e53565b50606082015161219f6060850182611e62565b5060808201516121b26080850182611e7d565b50505050565b600060a0820190506121cd6000830184612150565b92915050565b600082825260208201905092915050565b7f46656520746f6f20686967680000000000000000000000000000000000000000600082015250565b600061221a600c836121d3565b9150612225826121e4565b602082019050919050565b600060208201905081810360008301526122498161220d565b9050919050565b7f4e4654206e6f74206c6973746564000000000000000000000000000000000000600082015250565b6000612286600e836121d3565b915061229182612250565b602082019050919050565b600060208201905081810360008301526122b581612279565b9050919050565b7f496e73756666696369656e742045544800000000000000000000000000000000600082015250565b60006122f26010836121d3565b91506122fd826122bc565b602082019050919050565b60006020820190508181036000830152612321816122e5565b9050919050565b7f4e487b7100000000000000000000000000000000000000000000000000000000600052601160045260246000fd5b600061236282611dbe565b915061236d83611dbe565b925082820261237b81611dbe565b9150828204841483151761239257612391612328565b5b5092915050565b7f4e487b7100000000000000000000000000000000000000000000000000000000600052601260045260246000fd5b60006123d382611dbe565b91506123de83611dbe565b9250826123ee576123ed612399565b5b828204905092915050565b600061240482611dbe565b915061240f83611dbe565b925082820390508181111561242757612426612328565b5b92915050565b60006060820190506124426000830186611f13565b61244f6020830185611f13565b61245c6040830184611ee9565b949350505050565b7f416d6f756e742026207072696365206d757374206265203e2030000000000000600082015250565b600061249a601a836121d3565b91506124a582612464565b602082019050919050565b600060208201905081810360008301526124c98161248d565b9050919050565b7f4672616374696f6e616c20746f6b656e7320616c7265616479206c697374656460008201527f20666f722074686973204e465400000000000000000000000000000000000000602082015250565b600061252c602d836121d3565b9150612537826124d0565b604082019050919050565b6000602082019050818103600083015261255b8161251f565b9050919050565b60008151905061257181611dc8565b92915050565b60006020828403121561258d5761258c611db9565b5b600061259b84828501612562565b91505092915050565b7f496e73756666696369656e74206672616374696f6e616c20746f6b656e730000600082015250565b60006125da601e836121d3565b91506125e5826125a4565b602082019050919050565b60006020820190508181036000830152612609816125cd565b9050919050565b60006040820190506126256000830185611f13565b6126326020830184611f13565b9392505050565b7f496e73756666696369656e74206672616374696f6e616c20746f6b656e20616c60008201527f6c6f77616e636500000000000000000000000000000000000000000000000000602082015250565b60006126956027836121d3565b91506126a082612639565b604082019050919050565b600060208201905081810360008301526126c481612688565b9050919050565b60006040820190506126e06000830185611ee9565b6126ed6020830184611ee9565b9392505050565b7f4672616374696f6e616c20746f6b656e73206e6f74206c697374656400000000600082015250565b600061272a601c836121d3565b9150612735826126f4565b602082019050919050565b600060208201905081810360008301526127598161271d565b9050919050565b7f4e6f742073656c6c657200000000000000000000000000000000000000000000600082015250565b6000612796600a836121d3565b91506127a182612760565b602082019050919050565b600060208201905081810360008301526127c581612789565b9050919050565b7f5072696365206d757374206265203e2030000000000000000000000000000000600082015250565b60006128026011836121d3565b915061280d826127cc565b602082019050919050565b60006020820190508181036000830152612831816127f5565b9050919050565b60008151905061284781611f3d565b92915050565b60006020828403121561286357612862611db9565b5b600061287184828501612838565b91505092915050565b7f4e6f74204e4654206f776e657200000000000000000000000000000000000000600082015250565b60006128b0600d836121d3565b91506128bb8261287a565b602082019050919050565b600060208201905081810360008301526128df816128a3565b9050919050565b7f4e465420616c7265616479206c69737465640000000000000000000000000000600082015250565b600061291c6012836121d3565b9150612927826128e6565b602082019050919050565b6000602082019050818103600083015261294b8161290f565b9050919050565b61295b81611e71565b811461296657600080fd5b50565b60008151905061297881612952565b92915050565b60006020828403121561299457612993611db9565b5b60006129a284828501612969565b91505092915050565b7f4d61726b6574706c616365206e6f7420617070726f76656420746f207472616e60008201527f73666572204e4654000000000000000000000000000000000000000000000000602082015250565b6000612a076028836121d3565b9150612a12826129ab565b604082019050919050565b60006020820190508181036000830152612a36816129fa565b9050919050565b7f4e6f7420656e6f756768206672616374696f6e616c20746f6b656e732061766160008201527f696c61626c650000000000000000000000000000000000000000000000000000602082015250565b6000612a996026836121d3565b9150612aa482612a3d565b604082019050919050565b60006020820190508181036000830152612ac881612a8c565b9050919050565b7f496e76616c696420616464726573730000000000000000000000000000000000600082015250565b6000612b05600f836121d3565b9150612b1082612acf565b602082019050919050565b60006020820190508181036000830152612b3481612af8565b905091905056fea2646970667358221220aec3549214474045b7bcf4961730706fb50c3d623bd9f288da32f7beaf8c84a064736f6c63430008180033",
  "linkReferences": {},
  "deployedLinkReferences": {}
}