{
  "_format": "hh-sol-artifact-1",
  "contractName": "RWALending",
  "sourceName": "contracts/RWALending.sol",
  "abi": [
    {
      "inputs": [
        {
          "internalType": "address",
          "name": "_nftContract",
          "type": "address"
        },
        {
          "internalType": "address",
          "name": "_usdcToken",
          "type": "address"
        }
      ],
      "stateMutability": "nonpayable",
      "type": "constructor"
    },
    {
      "inputs": [
        {
          "internalType": "address",
          "name": "owner",
          "type": "address"
        }
      ],
      "name": "OwnableInvalidOwner",
      "type": "error"
    },
    {
      "inputs": [
        {
          "internalType": "address",
          "name": "account",
          "type": "address"
        }
      ],
      "name": "OwnableUnauthorizedAccount",
      "type": "error"
    },
    {
      "inputs": [],
      "name": "ReentrancyGuardReentrantCall",
      "type": "error"
    },
    {
      "anonymous": false,
      "inputs": [
        {
          "indexed": true,
          "internalType": "address",
          "name": "user",
          "type": "address"
        },
        {
          "indexed": false,
          "internalType": "uint256",
          "name": "tokenId",
          "type": "uint256"
        },
        {
          "indexed": false,
          "internalType": "uint256",
          "name": "amount",
          "type": "uint256"
        }
      ],
      "name": "LoanRepaid",
      "type": "event"
    },
    {
      "anonymous": false,
      "inputs": [
        {
          "indexed": true,
          "internalType": "address",
          "name": "user",
          "type": "address"
        },
        {
          "indexed": false,
          "internalType": "uint256",
          "name": "tokenId",
          "type": "uint256"
        },
        {
          "indexed": false,
          "internalType": "uint256",
          "name": "loanAmount",
          "type": "uint256"
        }
      ],
      "name": "NFTDeposited",
      "type": "event"
    },
    {
      "anonymous": false,
      "inputs": [
        {
          "indexed": true,
          "internalType": "address",
          "name": "user",
          "type": "address"
        },
        {
          "indexed": false,
          "internalType": "uint256",
          "name": "tokenId",
          "type": "uint256"
        }
      ],
      "name": "NFTLiquidated",
      "type": "event"
    },
    {
      "anonymous": false,
      "inputs": [
        {
          "indexed": false,
          "internalType": "uint256",
          "name": "tokenId",
          "type": "uint256"
        },
        {
          "indexed": false,
          "internalType": "uint256",
          "name": "value",
          "type": "uint256"
        }
      ],
      "name": "NFTValueSet",
      "type": "event"
    },
    {
      "anonymous": false,
      "inputs": [
        {
          "indexed": true,
          "internalType": "address",
          "name": "previousOwner",
          "type": "address"
        },
        {
          "indexed": true,
          "internalType": "address",
          "name": "newOwner",
          "type": "address"
        }
      ],
      "name": "OwnershipTransferred",
      "type": "event"
    },
    {
      "inputs": [],
      "name": "collateralizationRatio",
      "outputs": [
        {
          "internalType": "uint256",
          "name": "",
          "type": "uint256"
        }
      ],
      "stateMutability": "view",
      "type": "function"
    },
    {
      "inputs": [
        {
          "internalType": "uint256",
          "name": "tokenId",
          "type": "uint256"
        },
        {
          "internalType": "uint256",
          "name": "loanAmount",
          "type": "uint256"
        }
      ],
      "name": "depositNFTForLoan",
      "outputs": [],
      "stateMutability": "nonpayable",
      "type": "function"
    },
    {
      "inputs": [
        {
          "internalType": "uint256",
          "name": "tokenId",
          "type": "uint256"
        },
        {
          "internalType": "address",
          "name": "to",
          "type": "address"
        }
      ],
      "name": "emergencyRecoverNFT",
      "outputs": [],
      "stateMutability": "nonpayable",
      "type": "function"
    },
    {
      "inputs": [
        {
          "internalType": "uint256",
          "name": "amount",
          "type": "uint256"
        }
      ],
      "name": "fundContract",
      "outputs": [],
      "stateMutability": "nonpayable",
      "type": "function"
    },
    {
      "inputs": [],
      "name": "getContractBalance",
      "outputs": [
        {
          "internalType": "uint256",
          "name": "",
          "type": "uint256"
        }
      ],
      "stateMutability": "view",
      "type": "function"
    },
    {
      "inputs": [
        {
          "internalType": "uint256",
          "name": "tokenId",
          "type": "uint256"
        }
      ],
      "name": "liquidate",
      "outputs": [],
      "stateMutability": "nonpayable",
      "type": "function"
    },
    {
      "inputs": [
        {
          "internalType": "uint256",
          "name": "",
          "type": "uint256"
        }
      ],
      "name": "loans",
      "outputs": [
        {
          "internalType": "address",
          "name": "borrower",
          "type": "address"
        },
        {
          "internalType": "uint256",
          "name": "loanAmount",
          "type": "uint256"
        },
        {
          "internalType": "uint256",
          "name": "nftTokenId",
          "type": "uint256"
        },
        {
          "internalType": "bool",
          "name": "active",
          "type": "bool"
        },
        {
          "internalType": "uint256",
          "name": "timestamp",
          "type": "uint256"
        }
      ],
      "stateMutability": "view",
      "type": "function"
    },
    {
      "inputs": [],
      "name": "nftContract",
      "outputs": [
        {
          "internalType": "contract RWANFT",
          "name": "",
          "type": "address"
        }
      ],
      "stateMutability": "view",
      "type": "function"
    },
    {
      "inputs": [
        {
          "internalType": "uint256",
          "name": "",
          "type": "uint256"
        }
      ],
      "name": "nftValues",
      "outputs": [
        {
          "internalType": "uint256",
          "name": "",
          "type": "uint256"
        }
      ],
      "stateMutability": "view",
      "type": "function"
    },
    {
      "inputs": [
        {
          "internalType": "address",
          "name": "",
          "type": "address"
        },
        {
          "internalType": "address",
          "name": "",
          "type": "address"
        },
        {
          "internalType": "uint256",
          "name": "",
          "type": "uint256"
        },
        {
          "internalType": "bytes",
          "name": "",
          "type": "bytes"
        }
      ],
      "name": "onERC721Received",
      "outputs": [
        {
          "internalType": "bytes4",
          "name": "",
          "type": "bytes4"
        }
      ],
      "stateMutability": "pure",
      "type": "function"
    },
    {
      "inputs": [],
      "name": "owner",
      "outputs": [
        {
          "internalType": "address",
          "name": "",
          "type": "address"
        }
      ],
      "stateMutability": "view",
      "type": "function"
    },
    {
      "inputs": [],
      "name": "renounceOwnership",
      "outputs": [],
      "stateMutability": "nonpayable",
      "type": "function"
    },
    {
      "inputs": [
        {
          "internalType": "uint256",
          "name": "tokenId",
          "type": "uint256"
        },
        {
          "internalType": "uint256",
          "name": "repayAmount",
          "type": "uint256"
        }
      ],
      "name": "repayLoan",
      "outputs": [],
      "stateMutability": "nonpayable",
      "type": "function"
    },
    {
      "inputs": [
        {
          "internalType": "uint256",
          "name": "ratio",
          "type": "uint256"
        }
      ],
      "name": "setCollateralizationRatio",
      "outputs": [],
      "stateMutability": "nonpayable",
      "type": "function"
    },
    {
      "inputs": [
        {
          "internalType": "uint256",
          "name": "tokenId",
          "type": "uint256"
        },
        {
          "internalType": "uint256",
          "name": "value",
          "type": "uint256"
        }
      ],
      "name": "setNFTValue",
      "outputs": [],
      "stateMutability": "nonpayable",
      "type": "function"
    },
    {
      "inputs": [
        {
          "internalType": "address",
          "name": "newOwner",
          "type": "address"
        }
      ],
      "name": "transferOwnership",
      "outputs": [],
      "stateMutability": "nonpayable",
      "type": "function"
    },
    {
      "inputs": [],
      "name": "usdcToken",
      "outputs": [
        {
          "internalType": "contract IERC20",
          "name": "",
          "type": "address"
        }
      ],
      "stateMutability": "view",
      "type": "function"
    },
    {
      "inputs": [
        {
          "internalType": "uint256",
          "name": "tokenId",
          "type": "uint256"
        }
      ],
      "name": "viewLoan",
      "outputs": [
        {
          "components": [
            {
              "internalType": "address",
              "name": "borrower",
              "type": "address"
            },
            {
              "internalType": "uint256",
              "name": "loanAmount",
              "type": "uint256"
            },
            {
              "internalType": "uint256",
              "name": "nftTokenId",
              "type": "uint256"
            },
            {
              "internalType": "bool",
              "name": "active",
              "type": "bool"
            },
            {
              "internalType": "uint256",
              "name": "timestamp",
              "type": "uint256"
            }
          ],
          "internalType": "struct RWALending.Loan",
          "name": "",
          "type": "tuple"
        }
      ],
      "stateMutability": "view",
      "type": "function"
    },
    {
      "inputs": [
        {
          "internalType": "uint256",
          "name": "amount",
          "type": "uint256"
        }
      ],
      "name": "withdrawUSDC",
      "outputs": [],
      "stateMutability": "nonpayable",
      "type": "function"
    }
  ],
  "bytecode": "0x608060405260966004553480156200001657600080fd5b50604051620029b7380380620029b783398181016040528101906200003c919062000283565b33600073ffffffffffffffffffffffffffffffffffffffff168173ffffffffffffffffffffffffffffffffffffffff1603620000b25760006040517f1e4fbdf7000000000000000000000000000000000000000000000000000000008152600401620000a99190620002db565b60405180910390fd5b620000c3816200015560201b60201c565b506001808190555081600260006101000a81548173ffffffffffffffffffffffffffffffffffffffff021916908373ffffffffffffffffffffffffffffffffffffffff16021790555080600360006101000a81548173ffffffffffffffffffffffffffffffffffffffff021916908373ffffffffffffffffffffffffffffffffffffffff1602179055505050620002f8565b60008060009054906101000a900473ffffffffffffffffffffffffffffffffffffffff169050816000806101000a81548173ffffffffffffffffffffffffffffffffffffffff021916908373ffffffffffffffffffffffffffffffffffffffff1602179055508173ffffffffffffffffffffffffffffffffffffffff168173ffffffffffffffffffffffffffffffffffffffff167f8be0079c531659141344cd1fd0a4f28419497f9722a3daafe3b4186f6b6457e060405160405180910390a35050565b600080fd5b600073ffffffffffffffffffffffffffffffffffffffff82169050919050565b60006200024b826200021e565b9050919050565b6200025d816200023e565b81146200026957600080fd5b50565b6000815190506200027d8162000252565b92915050565b600080604083850312156200029d576200029c62000219565b5b6000620002ad858286016200026c565b9250506020620002c0858286016200026c565b9150509250929050565b620002d5816200023e565b82525050565b6000602082019050620002f26000830184620002ca565b92915050565b6126af80620003086000396000f3fe608060405234801561001057600080fd5b50600436106101215760003560e01c80638da5cb5b116100ad578063db81f99b11610071578063db81f99b146102e0578063dcaf9c44146102fc578063e1ec3c681461031a578063e5829d201461034e578063f2fde38b1461036a57610121565b80638da5cb5b1461023c578063a803614d1461025a578063cedf5f4a14610276578063d028aa6214610292578063d56d229d146102c257610121565b80635e708343116100f45780635e708343146101ac578063677ed495146101c85780636f9fb98a146101f8578063715018a6146102165780638a700b531461022057610121565b806311eac85514610126578063150b7a02146101445780633519a2f814610174578063415f124014610190575b600080fd5b61012e610386565b60405161013b91906118d9565b60405180910390f35b61015e600480360381019061015991906119d7565b6103ac565b60405161016b9190611a9a565b60405180910390f35b61018e60048036038101906101899190611ab5565b6103c1565b005b6101aa60048036038101906101a59190611ab5565b6104ad565b005b6101c660048036038101906101c19190611ae2565b6105c0565b005b6101e260048036038101906101dd9190611ab5565b6106c1565b6040516101ef9190611b31565b60405180910390f35b6102006106d9565b60405161020d9190611b31565b60405180910390f35b61021e61077c565b005b61023a60048036038101906102359190611b4c565b610790565b005b610244610bf5565b6040516102519190611b9b565b60405180910390f35b610274600480360381019061026f9190611b4c565b610c1e565b005b610290600480360381019061028b9190611b4c565b611226565b005b6102ac60048036038101906102a79190611ab5565b611283565b6040516102b99190611c57565b60405180910390f35b6102ca61133f565b6040516102d79190611c93565b60405180910390f35b6102fa60048036038101906102f59190611ab5565b611365565b005b61030461152d565b6040516103119190611b31565b60405180910390f35b610334600480360381019061032f9190611ab5565b611533565b604051610345959493929190611cbd565b60405180910390f35b61036860048036038101906103639190611ab5565b611596565b005b610384600480360381019061037f9190611d10565b6115eb565b005b600360009054906101000a900473ffffffffffffffffffffffffffffffffffffffff1681565b600063150b7a0260e01b905095945050505050565b6103c9611671565b600360009054906101000a900473ffffffffffffffffffffffffffffffffffffffff1673ffffffffffffffffffffffffffffffffffffffff166323b872dd3330846040518463ffffffff1660e01b815260040161042893929190611d3d565b6020604051808303816000875af1158015610447573d6000803e3d6000fd5b505050506040513d601f19601f8201168201806040525081019061046b9190611da0565b6104aa576040517f08c379a00000000000000000000000000000000000000000000000000000000081526004016104a190611e2a565b60405180910390fd5b50565b6104b5611671565b6104bd6116f8565b60006005600083815260200190815260200160002090508060030160009054906101000a900460ff16610525576040517f08c379a000000000000000000000000000000000000000000000000000000000815260040161051c90611e96565b60405180910390fd5b60008160030160006101000a81548160ff0219169083151502179055508060000160009054906101000a900473ffffffffffffffffffffffffffffffffffffffff1673ffffffffffffffffffffffffffffffffffffffff167f1de6f257258c4e8f8e5d4511fb425ba216600e9cf6a2b4628322c0b5b469956f836040516105ac9190611b31565b60405180910390a2506105bd61173e565b50565b6105c8611671565b6005600083815260200190815260200160002060030160009054906101000a900460ff161561062c576040517f08c379a000000000000000000000000000000000000000000000000000000000815260040161062390611f02565b60405180910390fd5b600260009054906101000a900473ffffffffffffffffffffffffffffffffffffffff1673ffffffffffffffffffffffffffffffffffffffff166342842e0e3083856040518463ffffffff1660e01b815260040161068b93929190611d3d565b600060405180830381600087803b1580156106a557600080fd5b505af11580156106b9573d6000803e3d6000fd5b505050505050565b60066020528060005260406000206000915090505481565b6000600360009054906101000a900473ffffffffffffffffffffffffffffffffffffffff1673ffffffffffffffffffffffffffffffffffffffff166370a08231306040518263ffffffff1660e01b81526004016107369190611b9b565b602060405180830381865afa158015610753573d6000803e3d6000fd5b505050506040513d601f19601f820116820180604052508101906107779190611f37565b905090565b610784611671565b61078e6000611747565b565b6107986116f8565b60006005600084815260200190815260200160002090508060030160009054906101000a900460ff16610800576040517f08c379a00000000000000000000000000000000000000000000000000000000081526004016107f790611e96565b60405180910390fd5b8060000160009054906101000a900473ffffffffffffffffffffffffffffffffffffffff1673ffffffffffffffffffffffffffffffffffffffff163373ffffffffffffffffffffffffffffffffffffffff1614610892576040517f08c379a000000000000000000000000000000000000000000000000000000000815260040161088990611fb0565b60405180910390fd5b600082116108d5576040517f08c379a00000000000000000000000000000000000000000000000000000000081526004016108cc9061201c565b60405180910390fd5b600360009054906101000a900473ffffffffffffffffffffffffffffffffffffffff1673ffffffffffffffffffffffffffffffffffffffff166323b872dd3330856040518463ffffffff1660e01b815260040161093493929190611d3d565b6020604051808303816000875af1158015610953573d6000803e3d6000fd5b505050506040513d601f19601f820116820180604052508101906109779190611da0565b6109b6576040517f08c379a00000000000000000000000000000000000000000000000000000000081526004016109ad90612088565b60405180910390fd5b80600101548210610b7c5760008160010154836109d391906120d7565b90506000811115610abe57600360009054906101000a900473ffffffffffffffffffffffffffffffffffffffff1673ffffffffffffffffffffffffffffffffffffffff1663a9059cbb33836040518363ffffffff1660e01b8152600401610a3b92919061210b565b6020604051808303816000875af1158015610a5a573d6000803e3d6000fd5b505050506040513d601f19601f82011682018060405250810190610a7e9190611da0565b610abd576040517f08c379a0000000000000000000000000000000000000000000000000000000008152600401610ab490612180565b60405180910390fd5b5b60008260030160006101000a81548160ff02191690831515021790555060008260010181905550600260009054906101000a900473ffffffffffffffffffffffffffffffffffffffff1673ffffffffffffffffffffffffffffffffffffffff166342842e0e3033876040518463ffffffff1660e01b8152600401610b4493929190611d3d565b600060405180830381600087803b158015610b5e57600080fd5b505af1158015610b72573d6000803e3d6000fd5b5050505050610b98565b81816001016000828254610b9091906120d7565b925050819055505b3373ffffffffffffffffffffffffffffffffffffffff167fc7ce0a35f17b490de2a317e7fecb2cae86b1abffb03800b2f4928235213826988484604051610be09291906121a0565b60405180910390a250610bf161173e565b5050565b60008060009054906101000a900473ffffffffffffffffffffffffffffffffffffffff16905090565b610c266116f8565b3373ffffffffffffffffffffffffffffffffffffffff16600260009054906101000a900473ffffffffffffffffffffffffffffffffffffffff1673ffffffffffffffffffffffffffffffffffffffff16636352211e846040518263ffffffff1660e01b8152600401610c989190611b31565b602060405180830381865afa158015610cb5573d6000803e3d6000fd5b505050506040513d601f19601f82011682018060405250810190610cd991906121de565b73ffffffffffffffffffffffffffffffffffffffff1614610d2f576040517f08c379a0000000000000000000000000000000000000000000000000000000008152600401610d2690612257565b60405180910390fd5b6005600083815260200190815260200160002060030160009054906101000a900460ff1615610d93576040517f08c379a0000000000000000000000000000000000000000000000000000000008152600401610d8a906122c3565b60405180910390fd5b60008111610dd6576040517f08c379a0000000000000000000000000000000000000000000000000000000008152600401610dcd9061232f565b60405180910390fd5b6000600660008481526020019081526020016000205411610e2c576040517f08c379a0000000000000000000000000000000000000000000000000000000008152600401610e239061239b565b60405180910390fd5b600060045460646006600086815260200190815260200160002054610e5191906123bb565b610e5b919061242c565b905080821115610ea0576040517f08c379a0000000000000000000000000000000000000000000000000000000008152600401610e97906124a9565b60405180910390fd5b81600360009054906101000a900473ffffffffffffffffffffffffffffffffffffffff1673ffffffffffffffffffffffffffffffffffffffff166370a08231306040518263ffffffff1660e01b8152600401610efc9190611b9b565b602060405180830381865afa158015610f19573d6000803e3d6000fd5b505050506040513d601f19601f82011682018060405250810190610f3d9190611f37565b1015610f7e576040517f08c379a0000000000000000000000000000000000000000000000000000000008152600401610f7590612515565b60405180910390fd5b600260009054906101000a900473ffffffffffffffffffffffffffffffffffffffff1673ffffffffffffffffffffffffffffffffffffffff166342842e0e3330866040518463ffffffff1660e01b8152600401610fdd93929190611d3d565b600060405180830381600087803b158015610ff757600080fd5b505af115801561100b573d6000803e3d6000fd5b505050506040518060a001604052803373ffffffffffffffffffffffffffffffffffffffff168152602001838152602001848152602001600115158152602001428152506005600085815260200190815260200160002060008201518160000160006101000a81548173ffffffffffffffffffffffffffffffffffffffff021916908373ffffffffffffffffffffffffffffffffffffffff160217905550602082015181600101556040820151816002015560608201518160030160006101000a81548160ff02191690831515021790555060808201518160040155905050600360009054906101000a900473ffffffffffffffffffffffffffffffffffffffff1673ffffffffffffffffffffffffffffffffffffffff1663a9059cbb33846040518363ffffffff1660e01b815260040161114792919061210b565b6020604051808303816000875af1158015611166573d6000803e3d6000fd5b505050506040513d601f19601f8201168201806040525081019061118a9190611da0565b6111c9576040517f08c379a00000000000000000000000000000000000000000000000000000000081526004016111c090612088565b60405180910390fd5b3373ffffffffffffffffffffffffffffffffffffffff167fdeba2d4291edd2e29ef127ea6e31f12ebb9adc96b42605081927d379bdcb8bed84846040516112119291906121a0565b60405180910390a25061122261173e565b5050565b61122e611671565b8060066000848152602001908152602001600020819055507f58918b1f8c766d3fa31ed9ba4293e4836daeac1bdce0e58bcc535c6411ce8a5f82826040516112779291906121a0565b60405180910390a15050565b61128b611813565b600560008381526020019081526020016000206040518060a00160405290816000820160009054906101000a900473ffffffffffffffffffffffffffffffffffffffff1673ffffffffffffffffffffffffffffffffffffffff1673ffffffffffffffffffffffffffffffffffffffff16815260200160018201548152602001600282015481526020016003820160009054906101000a900460ff161515151581526020016004820154815250509050919050565b600260009054906101000a900473ffffffffffffffffffffffffffffffffffffffff1681565b61136d611671565b80600360009054906101000a900473ffffffffffffffffffffffffffffffffffffffff1673ffffffffffffffffffffffffffffffffffffffff166370a08231306040518263ffffffff1660e01b81526004016113c99190611b9b565b602060405180830381865afa1580156113e6573d6000803e3d6000fd5b505050506040513d601f19601f8201168201806040525081019061140a9190611f37565b101561144b576040517f08c379a000000000000000000000000000000000000000000000000000000000815260040161144290612581565b60405180910390fd5b600360009054906101000a900473ffffffffffffffffffffffffffffffffffffffff1673ffffffffffffffffffffffffffffffffffffffff1663a9059cbb33836040518363ffffffff1660e01b81526004016114a892919061210b565b6020604051808303816000875af11580156114c7573d6000803e3d6000fd5b505050506040513d601f19601f820116820180604052508101906114eb9190611da0565b61152a576040517f08c379a0000000000000000000000000000000000000000000000000000000008152600401611521906125ed565b60405180910390fd5b50565b60045481565b60056020528060005260406000206000915090508060000160009054906101000a900473ffffffffffffffffffffffffffffffffffffffff16908060010154908060020154908060030160009054906101000a900460ff16908060040154905085565b61159e611671565b606481116115e1576040517f08c379a00000000000000000000000000000000000000000000000000000000081526004016115d890612659565b60405180910390fd5b8060048190555050565b6115f3611671565b600073ffffffffffffffffffffffffffffffffffffffff168173ffffffffffffffffffffffffffffffffffffffff16036116655760006040517f1e4fbdf700000000000000000000000000000000000000000000000000000000815260040161165c9190611b9b565b60405180910390fd5b61166e81611747565b50565b61167961180b565b73ffffffffffffffffffffffffffffffffffffffff16611697610bf5565b73ffffffffffffffffffffffffffffffffffffffff16146116f6576116ba61180b565b6040517f118cdaa70000000000000000000000000000000000000000000000000000000081526004016116ed9190611b9b565b60405180910390fd5b565b600260015403611734576040517f3ee5aeb500000000000000000000000000000000000000000000000000000000815260040160405180910390fd5b6002600181905550565b60018081905550565b60008060009054906101000a900473ffffffffffffffffffffffffffffffffffffffff169050816000806101000a81548173ffffffffffffffffffffffffffffffffffffffff021916908373ffffffffffffffffffffffffffffffffffffffff1602179055508173ffffffffffffffffffffffffffffffffffffffff168173ffffffffffffffffffffffffffffffffffffffff167f8be0079c531659141344cd1fd0a4f28419497f9722a3daafe3b4186f6b6457e060405160405180910390a35050565b600033905090565b6040518060a00160405280600073ffffffffffffffffffffffffffffffffffffffff1681526020016000815260200160008152602001600015158152602001600081525090565b600073ffffffffffffffffffffffffffffffffffffffff82169050919050565b6000819050919050565b600061189f61189a6118958461185a565b61187a565b61185a565b9050919050565b60006118b182611884565b9050919050565b60006118c3826118a6565b9050919050565b6118d3816118b8565b82525050565b60006020820190506118ee60008301846118ca565b92915050565b600080fd5b600080fd5b60006119098261185a565b9050919050565b611919816118fe565b811461192457600080fd5b50565b60008135905061193681611910565b92915050565b6000819050919050565b61194f8161193c565b811461195a57600080fd5b50565b60008135905061196c81611946565b92915050565b600080fd5b600080fd5b600080fd5b60008083601f84011261199757611996611972565b5b8235905067ffffffffffffffff8111156119b4576119b3611977565b5b6020830191508360018202830111156119d0576119cf61197c565b5b9250929050565b6000806000806000608086880312156119f3576119f26118f4565b5b6000611a0188828901611927565b9550506020611a1288828901611927565b9450506040611a238882890161195d565b935050606086013567ffffffffffffffff811115611a4457611a436118f9565b5b611a5088828901611981565b92509250509295509295909350565b60007fffffffff0000000000000000000000000000000000000000000000000000000082169050919050565b611a9481611a5f565b82525050565b6000602082019050611aaf6000830184611a8b565b92915050565b600060208284031215611acb57611aca6118f4565b5b6000611ad98482850161195d565b91505092915050565b60008060408385031215611af957611af86118f4565b5b6000611b078582860161195d565b9250506020611b1885828601611927565b9150509250929050565b611b2b8161193c565b82525050565b6000602082019050611b466000830184611b22565b92915050565b60008060408385031215611b6357611b626118f4565b5b6000611b718582860161195d565b9250506020611b828582860161195d565b9150509250929050565b611b95816118fe565b82525050565b6000602082019050611bb06000830184611b8c565b92915050565b611bbf816118fe565b82525050565b611bce8161193c565b82525050565b60008115159050919050565b611be981611bd4565b82525050565b60a082016000820151611c056000850182611bb6565b506020820151611c186020850182611bc5565b506040820151611c2b6040850182611bc5565b506060820151611c3e6060850182611be0565b506080820151611c516080850182611bc5565b50505050565b600060a082019050611c6c6000830184611bef565b92915050565b6000611c7d826118a6565b9050919050565b611c8d81611c72565b82525050565b6000602082019050611ca86000830184611c84565b92915050565b611cb781611bd4565b82525050565b600060a082019050611cd26000830188611b8c565b611cdf6020830187611b22565b611cec6040830186611b22565b611cf96060830185611cae565b611d066080830184611b22565b9695505050505050565b600060208284031215611d2657611d256118f4565b5b6000611d3484828501611927565b91505092915050565b6000606082019050611d526000830186611b8c565b611d5f6020830185611b8c565b611d6c6040830184611b22565b949350505050565b611d7d81611bd4565b8114611d8857600080fd5b50565b600081519050611d9a81611d74565b92915050565b600060208284031215611db657611db56118f4565b5b6000611dc484828501611d8b565b91505092915050565b600082825260208201905092915050565b7f46756e64696e67206661696c6564000000000000000000000000000000000000600082015250565b6000611e14600e83611dcd565b9150611e1f82611dde565b602082019050919050565b60006020820190508181036000830152611e4381611e07565b9050919050565b7f4e6f20616374697665206c6f616e000000000000000000000000000000000000600082015250565b6000611e80600e83611dcd565b9150611e8b82611e4a565b602082019050919050565b60006020820190508181036000830152611eaf81611e73565b9050919050565b7f4c6f616e20697320616374697665000000000000000000000000000000000000600082015250565b6000611eec600e83611dcd565b9150611ef782611eb6565b602082019050919050565b60006020820190508181036000830152611f1b81611edf565b9050919050565b600081519050611f3181611946565b92915050565b600060208284031215611f4d57611f4c6118f4565b5b6000611f5b84828501611f22565b91505092915050565b7f4e6f7420626f72726f7765720000000000000000000000000000000000000000600082015250565b6000611f9a600c83611dcd565b9150611fa582611f64565b602082019050919050565b60006020820190508181036000830152611fc981611f8d565b9050919050565b7f526570617920616d6f756e74206d757374206265203e20300000000000000000600082015250565b6000612006601883611dcd565b915061201182611fd0565b602082019050919050565b6000602082019050818103600083015261203581611ff9565b9050919050565b7f55534443207472616e73666572206661696c6564000000000000000000000000600082015250565b6000612072601483611dcd565b915061207d8261203c565b602082019050919050565b600060208201905081810360008301526120a181612065565b9050919050565b7f4e487b7100000000000000000000000000000000000000000000000000000000600052601160045260246000fd5b60006120e28261193c565b91506120ed8361193c565b9250828203905081811115612105576121046120a8565b5b92915050565b60006040820190506121206000830185611b8c565b61212d6020830184611b22565b9392505050565b7f45786365737320726566756e64206661696c6564000000000000000000000000600082015250565b600061216a601483611dcd565b915061217582612134565b602082019050919050565b600060208201905081810360008301526121998161215d565b9050919050565b60006040820190506121b56000830185611b22565b6121c26020830184611b22565b9392505050565b6000815190506121d881611910565b92915050565b6000602082840312156121f4576121f36118f4565b5b6000612202848285016121c9565b91505092915050565b7f4e6f74204e4654206f776e657200000000000000000000000000000000000000600082015250565b6000612241600d83611dcd565b915061224c8261220b565b602082019050919050565b6000602082019050818103600083015261227081612234565b9050919050565b7f4c6f616e20616c72656164792061637469766500000000000000000000000000600082015250565b60006122ad601383611dcd565b91506122b882612277565b602082019050919050565b600060208201905081810360008301526122dc816122a0565b9050919050565b7f4c6f616e20616d6f756e74206d757374206265203e2030000000000000000000600082015250565b6000612319601783611dcd565b9150612324826122e3565b602082019050919050565b600060208201905081810360008301526123488161230c565b9050919050565b7f4e46542076616c7565206e6f7420736574000000000000000000000000000000600082015250565b6000612385601183611dcd565b91506123908261234f565b602082019050919050565b600060208201905081810360008301526123b481612378565b9050919050565b60006123c68261193c565b91506123d18361193c565b92508282026123df8161193c565b915082820484148315176123f6576123f56120a8565b5b5092915050565b7f4e487b7100000000000000000000000000000000000000000000000000000000600052601260045260246000fd5b60006124378261193c565b91506124428361193c565b925082612452576124516123fd565b5b828204905092915050565b7f4c6f616e206578636565647320616c6c6f77656420636f6c6c61746572616c00600082015250565b6000612493601f83611dcd565b915061249e8261245d565b602082019050919050565b600060208201905081810360008301526124c281612486565b9050919050565b7f496e73756666696369656e74205553444320696e20636f6e7472616374000000600082015250565b60006124ff601d83611dcd565b915061250a826124c9565b602082019050919050565b6000602082019050818103600083015261252e816124f2565b9050919050565b7f496e73756666696369656e742062616c616e6365000000000000000000000000600082015250565b600061256b601483611dcd565b915061257682612535565b602082019050919050565b6000602082019050818103600083015261259a8161255e565b9050919050565b7f5769746864726177616c206661696c6564000000000000000000000000000000600082015250565b60006125d7601183611dcd565b91506125e2826125a1565b602082019050919050565b60006020820190508181036000830152612606816125ca565b9050919050565b7f526174696f206d757374206265203e2031303025000000000000000000000000600082015250565b6000612643601483611dcd565b915061264e8261260d565b602082019050919050565b6000602082019050818103600083015261267281612636565b905091905056fea264697066735822122012ab92e58eba6498fdb36c815148d812b25e8b96e55adc6d47370b50ebfbae7264736f6c63430008180033",
  "linkReferences": {},
  "deployedLinkReferences": {}
}