{
  "_format": "hh-sol-artifact-1",
  "contractName": "RWANFT",
  "sourceName": "contracts/RWANFT.sol",
  "abi": [
    {
      "inputs": [],
      "stateMutability": "nonpayable",
      "type": "constructor"
    },
    {
      "inputs": [
        {
          "internalType": "address",
          "name": "sender",
          "type": "address"
        },
        {
          "internalType": "uint256",
          "name": "tokenId",
          "type": "uint256"
        },
        {
          "internalType": "address",
          "name": "owner",
          "type": "address"
        }
      ],
      "name": "ERC721IncorrectOwner",
      "type": "error"
    },
    {
      "inputs": [
        {
          "internalType": "address",
          "name": "operator",
          "type": "address"
        },
        {
          "internalType": "uint256",
          "name": "tokenId",
          "type": "uint256"
        }
      ],
      "name": "ERC721InsufficientApproval",
      "type": "error"
    },
    {
      "inputs": [
        {
          "internalType": "address",
          "name": "approver",
          "type": "address"
        }
      ],
      "name": "ERC721InvalidApprover",
      "type": "error"
    },
    {
      "inputs": [
        {
          "internalType": "address",
          "name": "operator",
          "type": "address"
        }
      ],
      "name": "ERC721InvalidOperator",
      "type": "error"
    },
    {
      "inputs": [
        {
          "internalType": "address",
          "name": "owner",
          "type": "address"
        }
      ],
      "name": "ERC721InvalidOwner",
      "type": "error"
    },
    {
      "inputs": [
        {
          "internalType": "address",
          "name": "receiver",
          "type": "address"
        }
      ],
      "name": "ERC721InvalidReceiver",
      "type": "error"
    },
    {
      "inputs": [
        {
          "internalType": "address",
          "name": "sender",
          "type": "address"
        }
      ],
      "name": "ERC721InvalidSender",
      "type": "error"
    },
    {
      "inputs": [
        {
          "internalType": "uint256",
          "name": "tokenId",
          "type": "uint256"
        }
      ],
      "name": "ERC721NonexistentToken",
      "type": "error"
    },
    {
      "inputs": [
        {
          "internalType": "address",
          "name": "owner",
          "type": "address"
        }
      ],
      "name": "OwnableInvalidOwner",
      "type": "error"
    },
    {
      "inputs": [
        {
          "internalType": "address",
          "name": "account",
          "type": "address"
        }
      ],
      "name": "OwnableUnauthorizedAccount",
      "type": "error"
    },
    {
      "anonymous": false,
      "inputs": [
        {
          "indexed": true,
          "internalType": "address",
          "name": "owner",
          "type": "address"
        },
        {
          "indexed": true,
          "internalType": "address",
          "name": "approved",
          "type": "address"
        },
        {
          "indexed": true,
          "internalType": "uint256",
          "name": "tokenId",
          "type": "uint256"
        }
      ],
      "name": "Approval",
      "type": "event"
    },
    {
      "anonymous": false,
      "inputs": [
        {
          "indexed": true,
          "internalType": "address",
          "name": "owner",
          "type": "address"
        },
        {
          "indexed": true,
          "internalType": "address",
          "name": "operator",
          "type": "address"
        },
        {
          "indexed": false,
          "internalType": "bool",
          "name": "approved",
          "type": "bool"
        }
      ],
      "name": "ApprovalForAll",
      "type": "event"
    },
    {
      "anonymous": false,
      "inputs": [
        {
          "indexed": false,
          "internalType": "uint256",
          "name": "tokenId",
          "type": "uint256"
        }
      ],
      "name": "AssetBurned",
      "type": "event"
    },
    {
      "anonymous": false,
      "inputs": [
        {
          "indexed": false,
          "internalType": "uint256",
          "name": "tokenId",
          "type": "uint256"
        },
        {
          "indexed": false,
          "internalType": "address",
          "name": "owner",
          "type": "address"
        }
      ],
      "name": "AssetMinted",
      "type": "event"
    },
    {
      "anonymous": false,
      "inputs": [
        {
          "indexed": false,
          "internalType": "uint256",
          "name": "_fromTokenId",
          "type": "uint256"
        },
        {
          "indexed": false,
          "internalType": "uint256",
          "name": "_toTokenId",
          "type": "uint256"
        }
      ],
      "name": "BatchMetadataUpdate",
      "type": "event"
    },
    {
      "anonymous": false,
      "inputs": [
        {
          "indexed": false,
          "internalType": "uint256",
          "name": "_tokenId",
          "type": "uint256"
        }
      ],
      "name": "MetadataUpdate",
      "type": "event"
    },
    {
      "anonymous": false,
      "inputs": [
        {
          "indexed": true,
          "internalType": "address",
          "name": "previousOwner",
          "type": "address"
        },
        {
          "indexed": true,
          "internalType": "address",
          "name": "newOwner",
          "type": "address"
        }
      ],
      "name": "OwnershipTransferred",
      "type": "event"
    },
    {
      "anonymous": false,
      "inputs": [
        {
          "indexed": true,
          "internalType": "address",
          "name": "from",
          "type": "address"
        },
        {
          "indexed": true,
          "internalType": "address",
          "name": "to",
          "type": "address"
        },
        {
          "indexed": true,
          "internalType": "uint256",
          "name": "tokenId",
          "type": "uint256"
        }
      ],
      "name": "Transfer",
      "type": "event"
    },
    {
      "inputs": [
        {
          "internalType": "address",
          "name": "to",
          "type": "address"
        },
        {
          "internalType": "uint256",
          "name": "tokenId",
          "type": "uint256"
        }
      ],
      "name": "approve",
      "outputs": [],
      "stateMutability": "nonpayable",
      "type": "function"
    },
    {
      "inputs": [
        {
          "internalType": "address",
          "name": "owner",
          "type": "address"
        }
      ],
      "name": "balanceOf",
      "outputs": [
        {
          "internalType": "uint256",
          "name": "",
          "type": "uint256"
        }
      ],
      "stateMutability": "view",
      "type": "function"
    },
    {
      "inputs": [
        {
          "internalType": "uint256",
          "name": "tokenId",
          "type": "uint256"
        }
      ],
      "name": "burnAsset",
      "outputs": [],
      "stateMutability": "nonpayable",
      "type": "function"
    },
    {
      "inputs": [
        {
          "internalType": "uint256",
          "name": "",
          "type": "uint256"
        }
      ],
      "name": "fractionalTokens",
      "outputs": [
        {
          "internalType": "address",
          "name": "",
          "type": "address"
        }
      ],
      "stateMutability": "view",
      "type": "function"
    },
    {
      "inputs": [
        {
          "internalType": "uint256",
          "name": "tokenId",
          "type": "uint256"
        }
      ],
      "name": "getApproved",
      "outputs": [
        {
          "internalType": "address",
          "name": "",
          "type": "address"
        }
      ],
      "stateMutability": "view",
      "type": "function"
    },
    {
      "inputs": [
        {
          "internalType": "uint256",
          "name": "tokenId",
          "type": "uint256"
        }
      ],
      "name": "getAssetDetails",
      "outputs": [
        {
          "internalType": "string",
          "name": "",
          "type": "string"
        },
        {
          "internalType": "address",
          "name": "",
          "type": "address"
        }
      ],
      "stateMutability": "view",
      "type": "function"
    },
    {
      "inputs": [
        {
          "internalType": "address",
          "name": "owner",
          "type": "address"
        },
        {
          "internalType": "address",
          "name": "operator",
          "type": "address"
        }
      ],
      "name": "isApprovedForAll",
      "outputs": [
        {
          "internalType": "bool",
          "name": "",
          "type": "bool"
        }
      ],
      "stateMutability": "view",
      "type": "function"
    },
    {
      "inputs": [
        {
          "internalType": "address",
          "name": "to",
          "type": "address"
        },
        {
          "internalType": "string",
          "name": "metadataURI",
          "type": "string"
        }
      ],
      "name": "mintAsset",
      "outputs": [
        {
          "internalType": "uint256",
          "name": "",
          "type": "uint256"
        }
      ],
      "stateMutability": "nonpayable",
      "type": "function"
    },
    {
      "inputs": [],
      "name": "name",
      "outputs": [
        {
          "internalType": "string",
          "name": "",
          "type": "string"
        }
      ],
      "stateMutability": "view",
      "type": "function"
    },
    {
      "inputs": [],
      "name": "nextTokenId",
      "outputs": [
        {
          "internalType": "uint256",
          "name": "",
          "type": "uint256"
        }
      ],
      "stateMutability": "view",
      "type": "function"
    },
    {
      "inputs": [],
      "name": "owner",
      "outputs": [
        {
          "internalType": "address",
          "name": "",
          "type": "address"
        }
      ],
      "stateMutability": "view",
      "type": "function"
    },
    {
      "inputs": [
        {
          "internalType": "uint256",
          "name": "tokenId",
          "type": "uint256"
        }
      ],
      "name": "ownerOf",
      "outputs": [
        {
          "internalType": "address",
          "name": "",
          "type": "address"
        }
      ],
      "stateMutability": "view",
      "type": "function"
    },
    {
      "inputs": [],
      "name": "renounceOwnership",
      "outputs": [],
      "stateMutability": "nonpayable",
      "type": "function"
    },
    {
      "inputs": [
        {
          "internalType": "address",
          "name": "from",
          "type": "address"
        },
        {
          "internalType": "address",
          "name": "to",
          "type": "address"
        },
        {
          "internalType": "uint256",
          "name": "tokenId",
          "type": "uint256"
        }
      ],
      "name": "safeTransferFrom",
      "outputs": [],
      "stateMutability": "nonpayable",
      "type": "function"
    },
    {
      "inputs": [
        {
          "internalType": "address",
          "name": "from",
          "type": "address"
        },
        {
          "internalType": "address",
          "name": "to",
          "type": "address"
        },
        {
          "internalType": "uint256",
          "name": "tokenId",
          "type": "uint256"
        },
        {
          "internalType": "bytes",
          "name": "data",
          "type": "bytes"
        }
      ],
      "name": "safeTransferFrom",
      "outputs": [],
      "stateMutability": "nonpayable",
      "type": "function"
    },
    {
      "inputs": [
        {
          "internalType": "address",
          "name": "operator",
          "type": "address"
        },
        {
          "internalType": "bool",
          "name": "approved",
          "type": "bool"
        }
      ],
      "name": "setApprovalForAll",
      "outputs": [],
      "stateMutability": "nonpayable",
      "type": "function"
    },
    {
      "inputs": [
        {
          "internalType": "uint256",
          "name": "tokenId",
          "type": "uint256"
        },
        {
          "internalType": "address",
          "name": "fractionalToken",
          "type": "address"
        }
      ],
      "name": "setFractionalToken",
      "outputs": [],
      "stateMutability": "nonpayable",
      "type": "function"
    },
    {
      "inputs": [
        {
          "internalType": "bytes4",
          "name": "interfaceId",
          "type": "bytes4"
        }
      ],
      "name": "supportsInterface",
      "outputs": [
        {
          "internalType": "bool",
          "name": "",
          "type": "bool"
        }
      ],
      "stateMutability": "view",
      "type": "function"
    },
    {
      "inputs": [],
      "name": "symbol",
      "outputs": [
        {
          "internalType": "string",
          "name": "",
          "type": "string"
        }
      ],
      "stateMutability": "view",
      "type": "function"
    },
    {
      "inputs": [
        {
          "internalType": "uint256",
          "name": "tokenId",
          "type": "uint256"
        }
      ],
      "name": "tokenURI",
      "outputs": [
        {
          "internalType": "string",
          "name": "",
          "type": "string"
        }
      ],
      "stateMutability": "view",
      "type": "function"
    },
    {
      "inputs": [
        {
          "internalType": "address",
          "name": "from",
          "type": "address"
        },
        {
          "internalType": "address",
          "name": "to",
          "type": "address"
        },
        {
          "internalType": "uint256",
          "name": "tokenId",
          "type": "uint256"
        }
      ],
      "name": "transferFrom",
      "outputs": [],
      "stateMutability": "nonpayable",
      "type": "function"
    },
    {
      "inputs": [
        {
          "internalType": "address",
          "name": "newOwner",
          "type": "address"
        }
      ],
      "name": "transferOwnership",
      "outputs": [],
      "stateMutability": "nonpayable",
      "type": "function"
    }
  ],
  "bytecode": "0x60806040523480156200001157600080fd5b50336040518060400160405280600781526020017f525741204e4654000000000000000000000000000000000000000000000000008152506040518060400160405280600381526020017f5257410000000000000000000000000000000000000000000000000000000000815250816000908162000090919062000472565b508060019081620000a2919062000472565b505050600073ffffffffffffffffffffffffffffffffffffffff168173ffffffffffffffffffffffffffffffffffffffff16036200011a5760006040517f1e4fbdf70000000000000000000000000000000000000000000000000000000081526004016200011191906200059e565b60405180910390fd5b6200012b816200013260201b60201c565b50620005bb565b6000600760009054906101000a900473ffffffffffffffffffffffffffffffffffffffff16905081600760006101000a81548173ffffffffffffffffffffffffffffffffffffffff021916908373ffffffffffffffffffffffffffffffffffffffff1602179055508173ffffffffffffffffffffffffffffffffffffffff168173ffffffffffffffffffffffffffffffffffffffff167f8be0079c531659141344cd1fd0a4f28419497f9722a3daafe3b4186f6b6457e060405160405180910390a35050565b600081519050919050565b7f4e487b7100000000000000000000000000000000000000000000000000000000600052604160045260246000fd5b7f4e487b7100000000000000000000000000000000000000000000000000000000600052602260045260246000fd5b600060028204905060018216806200027a57607f821691505b60208210810362000290576200028f62000232565b5b50919050565b60008190508160005260206000209050919050565b60006020601f8301049050919050565b600082821b905092915050565b600060088302620002fa7fffffffffffffffffffffffffffffffffffffffffffffffffffffffffffffffff82620002bb565b620003068683620002bb565b95508019841693508086168417925050509392505050565b6000819050919050565b6000819050919050565b6000620003536200034d62000347846200031e565b62000328565b6200031e565b9050919050565b6000819050919050565b6200036f8362000332565b620003876200037e826200035a565b848454620002c8565b825550505050565b600090565b6200039e6200038f565b620003ab81848462000364565b505050565b5b81811015620003d357620003c760008262000394565b600181019050620003b1565b5050565b601f8211156200042257620003ec8162000296565b620003f784620002ab565b8101602085101562000407578190505b6200041f6200041685620002ab565b830182620003b0565b50505b505050565b600082821c905092915050565b6000620004476000198460080262000427565b1980831691505092915050565b600062000462838362000434565b9150826002028217905092915050565b6200047d82620001f8565b67ffffffffffffffff81111562000499576200049862000203565b5b620004a5825462000261565b620004b2828285620003d7565b600060209050601f831160018114620004ea5760008415620004d5578287015190505b620004e1858262000454565b86555062000551565b601f198416620004fa8662000296565b60005b828110156200052457848901518255600182019150602085019450602081019050620004fd565b8683101562000544578489015162000540601f89168262000434565b8355505b6001600288020188555050505b505050505050565b600073ffffffffffffffffffffffffffffffffffffffff82169050919050565b6000620005868262000559565b9050919050565b620005988162000579565b82525050565b6000602082019050620005b560008301846200058d565b92915050565b612a2b80620005cb6000396000f3fe608060405234801561001057600080fd5b50600436106101425760003560e01c80638da5cb5b116100b8578063b88d4fde1161007c578063b88d4fde14610362578063c87b56dd1461037e578063e985e9c5146103ae578063f1f13f71146103de578063f2fde38b1461040e578063f78f1f7c1461042a57610142565b80638da5cb5b146102bd5780638f08d44d146102db57806395d89b41146102f7578063a1f24b3d14610315578063a22cb4651461034657610142565b806323b872dd1161010a57806323b872dd146101fd57806342842e0e146102195780636352211e1461023557806370a0823114610265578063715018a61461029557806375794a3c1461029f57610142565b806301ffc9a71461014757806306fdde0314610177578063081812fc14610195578063095ea7b3146101c55780631dee21be146101e1575b600080fd5b610161600480360381019061015c9190611dea565b61045a565b60405161016e9190611e32565b60405180910390f35b61017f6104bb565b60405161018c9190611edd565b60405180910390f35b6101af60048036038101906101aa9190611f35565b61054d565b6040516101bc9190611fa3565b60405180910390f35b6101df60048036038101906101da9190611fea565b610569565b005b6101fb60048036038101906101f6919061202a565b61057f565b005b6102176004803603810190610212919061206a565b6105dd565b005b610233600480360381019061022e919061206a565b6106df565b005b61024f600480360381019061024a9190611f35565b6106ff565b60405161025c9190611fa3565b60405180910390f35b61027f600480360381019061027a91906120bd565b610711565b60405161028c91906120f9565b60405180910390f35b61029d6107cb565b005b6102a76107df565b6040516102b491906120f9565b60405180910390f35b6102c56107e5565b6040516102d29190611fa3565b60405180910390f35b6102f560048036038101906102f09190611f35565b61080f565b005b6102ff610890565b60405161030c9190611edd565b60405180910390f35b61032f600480360381019061032a9190611f35565b610922565b60405161033d929190612114565b60405180910390f35b610360600480360381019061035b9190612170565b61096c565b005b61037c600480360381019061037791906122e5565b610982565b005b61039860048036038101906103939190611f35565b6109a7565b6040516103a59190611edd565b60405180910390f35b6103c860048036038101906103c39190612368565b610aba565b6040516103d59190611e32565b60405180910390f35b6103f860048036038101906103f39190612449565b610b4e565b60405161040591906120f9565b60405180910390f35b610428600480360381019061042391906120bd565b610bce565b005b610444600480360381019061043f9190611f35565b610c54565b6040516104519190611fa3565b60405180910390f35b6000634906490660e01b7bffffffffffffffffffffffffffffffffffffffffffffffffffffffff1916827bffffffffffffffffffffffffffffffffffffffffffffffffffffffff191614806104b457506104b382610c87565b5b9050919050565b6060600080546104ca906124d4565b80601f01602080910402602001604051908101604052809291908181526020018280546104f6906124d4565b80156105435780601f1061051857610100808354040283529160200191610543565b820191906000526020600020905b81548152906001019060200180831161052657829003601f168201915b5050505050905090565b600061055882610d69565b5061056282610df1565b9050919050565b61057b8282610576610e2e565b610e36565b5050565b610587610e48565b806009600084815260200190815260200160002060006101000a81548173ffffffffffffffffffffffffffffffffffffffff021916908373ffffffffffffffffffffffffffffffffffffffff1602179055505050565b600073ffffffffffffffffffffffffffffffffffffffff168273ffffffffffffffffffffffffffffffffffffffff160361064f5760006040517f64a0ae920000000000000000000000000000000000000000000000000000000081526004016106469190611fa3565b60405180910390fd5b6000610663838361065e610e2e565b610ecf565b90508373ffffffffffffffffffffffffffffffffffffffff168173ffffffffffffffffffffffffffffffffffffffff16146106d9578382826040517f64283d7b0000000000000000000000000000000000000000000000000000000081526004016106d093929190612505565b60405180910390fd5b50505050565b6106fa83838360405180602001604052806000815250610982565b505050565b600061070a82610d69565b9050919050565b60008073ffffffffffffffffffffffffffffffffffffffff168273ffffffffffffffffffffffffffffffffffffffff16036107845760006040517f89c62b6400000000000000000000000000000000000000000000000000000000815260040161077b9190611fa3565b60405180910390fd5b600360008373ffffffffffffffffffffffffffffffffffffffff1673ffffffffffffffffffffffffffffffffffffffff168152602001908152602001600020549050919050565b6107d3610e48565b6107dd60006110e9565b565b60085481565b6000600760009054906101000a900473ffffffffffffffffffffffffffffffffffffffff16905090565b610817610e48565b610820816111af565b6009600082815260200190815260200160002060006101000a81549073ffffffffffffffffffffffffffffffffffffffff02191690557f23c8e7ecf38ad1e9e1639dfb4b258fc9942ae76b580d2ba43c4a73b9291812c98160405161088591906120f9565b60405180910390a150565b60606001805461089f906124d4565b80601f01602080910402602001604051908101604052809291908181526020018280546108cb906124d4565b80156109185780601f106108ed57610100808354040283529160200191610918565b820191906000526020600020905b8154815290600101906020018083116108fb57829003601f168201915b5050505050905090565b6060600061092f836109a7565b6009600085815260200190815260200160002060009054906101000a900473ffffffffffffffffffffffffffffffffffffffff1691509150915091565b61097e610977610e2e565b8383611235565b5050565b61098d8484846105dd565b6109a1610998610e2e565b858585856113a4565b50505050565b60606109b282610d69565b5060006006600084815260200190815260200160002080546109d3906124d4565b80601f01602080910402602001604051908101604052809291908181526020018280546109ff906124d4565b8015610a4c5780601f10610a2157610100808354040283529160200191610a4c565b820191906000526020600020905b815481529060010190602001808311610a2f57829003601f168201915b505050505090506000610a5d611555565b90506000815103610a72578192505050610ab5565b600082511115610aa7578082604051602001610a8f929190612578565b60405160208183030381529060405292505050610ab5565b610ab08461156c565b925050505b919050565b6000600560008473ffffffffffffffffffffffffffffffffffffffff1673ffffffffffffffffffffffffffffffffffffffff16815260200190815260200160002060008373ffffffffffffffffffffffffffffffffffffffff1673ffffffffffffffffffffffffffffffffffffffff16815260200190815260200160002060009054906101000a900460ff16905092915050565b6000610b58610e48565b60006008549050610b6984826115d5565b610b7381846115f3565b60086000815480929190610b86906125cb565b91905055507f55f284809f4c5b7377fbe62f2feeb9686e3834dcae5f3ca955140fe6547cd3558185604051610bbc929190612613565b60405180910390a18091505092915050565b610bd6610e48565b600073ffffffffffffffffffffffffffffffffffffffff168173ffffffffffffffffffffffffffffffffffffffff1603610c485760006040517f1e4fbdf7000000000000000000000000000000000000000000000000000000008152600401610c3f9190611fa3565b60405180910390fd5b610c51816110e9565b50565b60096020528060005260406000206000915054906101000a900473ffffffffffffffffffffffffffffffffffffffff1681565b60007f80ac58cd000000000000000000000000000000000000000000000000000000007bffffffffffffffffffffffffffffffffffffffffffffffffffffffff1916827bffffffffffffffffffffffffffffffffffffffffffffffffffffffff19161480610d5257507f5b5e139f000000000000000000000000000000000000000000000000000000007bffffffffffffffffffffffffffffffffffffffffffffffffffffffff1916827bffffffffffffffffffffffffffffffffffffffffffffffffffffffff1916145b80610d625750610d618261164f565b5b9050919050565b600080610d75836116b9565b9050600073ffffffffffffffffffffffffffffffffffffffff168173ffffffffffffffffffffffffffffffffffffffff1603610de857826040517f7e273289000000000000000000000000000000000000000000000000000000008152600401610ddf91906120f9565b60405180910390fd5b80915050919050565b60006004600083815260200190815260200160002060009054906101000a900473ffffffffffffffffffffffffffffffffffffffff169050919050565b600033905090565b610e4383838360016116f6565b505050565b610e50610e2e565b73ffffffffffffffffffffffffffffffffffffffff16610e6e6107e5565b73ffffffffffffffffffffffffffffffffffffffff1614610ecd57610e91610e2e565b6040517f118cdaa7000000000000000000000000000000000000000000000000000000008152600401610ec49190611fa3565b60405180910390fd5b565b600080610edb846116b9565b9050600073ffffffffffffffffffffffffffffffffffffffff168373ffffffffffffffffffffffffffffffffffffffff1614610f1d57610f1c8184866118bb565b5b600073ffffffffffffffffffffffffffffffffffffffff168173ffffffffffffffffffffffffffffffffffffffff1614610fae57610f5f6000856000806116f6565b6001600360008373ffffffffffffffffffffffffffffffffffffffff1673ffffffffffffffffffffffffffffffffffffffff168152602001908152602001600020600082825403925050819055505b600073ffffffffffffffffffffffffffffffffffffffff168573ffffffffffffffffffffffffffffffffffffffff1614611031576001600360008773ffffffffffffffffffffffffffffffffffffffff1673ffffffffffffffffffffffffffffffffffffffff168152602001908152602001600020600082825401925050819055505b846002600086815260200190815260200160002060006101000a81548173ffffffffffffffffffffffffffffffffffffffff021916908373ffffffffffffffffffffffffffffffffffffffff160217905550838573ffffffffffffffffffffffffffffffffffffffff168273ffffffffffffffffffffffffffffffffffffffff167fddf252ad1be2c89b69c2b068fc378daa952ba7f163c4a11628f55a4df523b3ef60405160405180910390a4809150509392505050565b6000600760009054906101000a900473ffffffffffffffffffffffffffffffffffffffff16905081600760006101000a81548173ffffffffffffffffffffffffffffffffffffffff021916908373ffffffffffffffffffffffffffffffffffffffff1602179055508173ffffffffffffffffffffffffffffffffffffffff168173ffffffffffffffffffffffffffffffffffffffff167f8be0079c531659141344cd1fd0a4f28419497f9722a3daafe3b4186f6b6457e060405160405180910390a35050565b60006111be6000836000610ecf565b9050600073ffffffffffffffffffffffffffffffffffffffff168173ffffffffffffffffffffffffffffffffffffffff160361123157816040517f7e27328900000000000000000000000000000000000000000000000000000000815260040161122891906120f9565b60405180910390fd5b5050565b600073ffffffffffffffffffffffffffffffffffffffff168273ffffffffffffffffffffffffffffffffffffffff16036112a657816040517f5b08ba1800000000000000000000000000000000000000000000000000000000815260040161129d9190611fa3565b60405180910390fd5b80600560008573ffffffffffffffffffffffffffffffffffffffff1673ffffffffffffffffffffffffffffffffffffffff16815260200190815260200160002060008473ffffffffffffffffffffffffffffffffffffffff1673ffffffffffffffffffffffffffffffffffffffff16815260200190815260200160002060006101000a81548160ff0219169083151502179055508173ffffffffffffffffffffffffffffffffffffffff168373ffffffffffffffffffffffffffffffffffffffff167f17307eab39ab6107e8899845ad3d59bd9653f200f220920489ca2b5937696c31836040516113979190611e32565b60405180910390a3505050565b60008373ffffffffffffffffffffffffffffffffffffffff163b111561154e578273ffffffffffffffffffffffffffffffffffffffff1663150b7a02868685856040518563ffffffff1660e01b81526004016114039493929190612691565b6020604051808303816000875af192505050801561143f57506040513d601f19601f8201168201806040525081019061143c91906126f2565b60015b6114c3573d806000811461146f576040519150601f19603f3d011682016040523d82523d6000602084013e611474565b606091505b5060008151036114bb57836040517f64a0ae920000000000000000000000000000000000000000000000000000000081526004016114b29190611fa3565b60405180910390fd5b805160208201fd5b63150b7a0260e01b7bffffffffffffffffffffffffffffffffffffffffffffffffffffffff1916817bffffffffffffffffffffffffffffffffffffffffffffffffffffffff19161461154c57836040517f64a0ae920000000000000000000000000000000000000000000000000000000081526004016115439190611fa3565b60405180910390fd5b505b5050505050565b606060405180602001604052806000815250905090565b606061157782610d69565b506000611582611555565b905060008151116115a257604051806020016040528060008152506115cd565b806115ac8461197f565b6040516020016115bd929190612578565b6040516020818303038152906040525b915050919050565b6115ef828260405180602001604052806000815250611a4d565b5050565b8060066000848152602001908152602001600020908161161391906128cb565b507ff8e1a15aba9398e019f0b49df1a4fde98ee17ae345cb5f6b5e2c27f5033e8ce78260405161164391906120f9565b60405180910390a15050565b60007f01ffc9a7000000000000000000000000000000000000000000000000000000007bffffffffffffffffffffffffffffffffffffffffffffffffffffffff1916827bffffffffffffffffffffffffffffffffffffffffffffffffffffffff1916149050919050565b60006002600083815260200190815260200160002060009054906101000a900473ffffffffffffffffffffffffffffffffffffffff169050919050565b808061172f5750600073ffffffffffffffffffffffffffffffffffffffff168273ffffffffffffffffffffffffffffffffffffffff1614155b1561186357600061173f84610d69565b9050600073ffffffffffffffffffffffffffffffffffffffff168373ffffffffffffffffffffffffffffffffffffffff16141580156117aa57508273ffffffffffffffffffffffffffffffffffffffff168173ffffffffffffffffffffffffffffffffffffffff1614155b80156117bd57506117bb8184610aba565b155b156117ff57826040517fa9fbf51f0000000000000000000000000000000000000000000000000000000081526004016117f69190611fa3565b60405180910390fd5b811561186157838573ffffffffffffffffffffffffffffffffffffffff168273ffffffffffffffffffffffffffffffffffffffff167f8c5be1e5ebec7d5bd14f71427d1e84f3dd0314c0f7b2291e5b200ac8c7c3b92560405160405180910390a45b505b836004600085815260200190815260200160002060006101000a81548173ffffffffffffffffffffffffffffffffffffffff021916908373ffffffffffffffffffffffffffffffffffffffff16021790555050505050565b6118c6838383611a71565b61197a57600073ffffffffffffffffffffffffffffffffffffffff168373ffffffffffffffffffffffffffffffffffffffff160361193b57806040517f7e27328900000000000000000000000000000000000000000000000000000000815260040161193291906120f9565b60405180910390fd5b81816040517f177e802f00000000000000000000000000000000000000000000000000000000815260040161197192919061299d565b60405180910390fd5b505050565b60606000600161198e84611b32565b01905060008167ffffffffffffffff8111156119ad576119ac6121ba565b5b6040519080825280601f01601f1916602001820160405280156119df5781602001600182028036833780820191505090505b509050600082602083010190505b600115611a42578080600190039150507f3031323334353637383961626364656600000000000000000000000000000000600a86061a8153600a8581611a3657611a356129c6565b5b049450600085036119ed575b819350505050919050565b611a578383611c85565b611a6c611a62610e2e565b60008585856113a4565b505050565b60008073ffffffffffffffffffffffffffffffffffffffff168373ffffffffffffffffffffffffffffffffffffffff1614158015611b2957508273ffffffffffffffffffffffffffffffffffffffff168473ffffffffffffffffffffffffffffffffffffffff161480611aea5750611ae98484610aba565b5b80611b2857508273ffffffffffffffffffffffffffffffffffffffff16611b1083610df1565b73ffffffffffffffffffffffffffffffffffffffff16145b5b90509392505050565b600080600090507a184f03e93ff9f4daa797ed6e38ed64bf6a1f0100000000000000008310611b90577a184f03e93ff9f4daa797ed6e38ed64bf6a1f0100000000000000008381611b8657611b856129c6565b5b0492506040810190505b6d04ee2d6d415b85acef81000000008310611bcd576d04ee2d6d415b85acef81000000008381611bc357611bc26129c6565b5b0492506020810190505b662386f26fc100008310611bfc57662386f26fc100008381611bf257611bf16129c6565b5b0492506010810190505b6305f5e1008310611c25576305f5e1008381611c1b57611c1a6129c6565b5b0492506008810190505b6127108310611c4a576127108381611c4057611c3f6129c6565b5b0492506004810190505b60648310611c6d5760648381611c6357611c626129c6565b5b0492506002810190505b600a8310611c7c576001810190505b80915050919050565b600073ffffffffffffffffffffffffffffffffffffffff168273ffffffffffffffffffffffffffffffffffffffff1603611cf75760006040517f64a0ae92000000000000000000000000000000000000000000000000000000008152600401611cee9190611fa3565b60405180910390fd5b6000611d0583836000610ecf565b9050600073ffffffffffffffffffffffffffffffffffffffff168173ffffffffffffffffffffffffffffffffffffffff1614611d795760006040517f73c6ac6e000000000000000000000000000000000000000000000000000000008152600401611d709190611fa3565b60405180910390fd5b505050565b6000604051905090565b600080fd5b600080fd5b60007fffffffff0000000000000000000000000000000000000000000000000000000082169050919050565b611dc781611d92565b8114611dd257600080fd5b50565b600081359050611de481611dbe565b92915050565b600060208284031215611e0057611dff611d88565b5b6000611e0e84828501611dd5565b91505092915050565b60008115159050919050565b611e2c81611e17565b82525050565b6000602082019050611e476000830184611e23565b92915050565b600081519050919050565b600082825260208201905092915050565b60005b83811015611e87578082015181840152602081019050611e6c565b60008484015250505050565b6000601f19601f8301169050919050565b6000611eaf82611e4d565b611eb98185611e58565b9350611ec9818560208601611e69565b611ed281611e93565b840191505092915050565b60006020820190508181036000830152611ef78184611ea4565b905092915050565b6000819050919050565b611f1281611eff565b8114611f1d57600080fd5b50565b600081359050611f2f81611f09565b92915050565b600060208284031215611f4b57611f4a611d88565b5b6000611f5984828501611f20565b91505092915050565b600073ffffffffffffffffffffffffffffffffffffffff82169050919050565b6000611f8d82611f62565b9050919050565b611f9d81611f82565b82525050565b6000602082019050611fb86000830184611f94565b92915050565b611fc781611f82565b8114611fd257600080fd5b50565b600081359050611fe481611fbe565b92915050565b6000806040838503121561200157612000611d88565b5b600061200f85828601611fd5565b925050602061202085828601611f20565b9150509250929050565b6000806040838503121561204157612040611d88565b5b600061204f85828601611f20565b925050602061206085828601611fd5565b9150509250929050565b60008060006060848603121561208357612082611d88565b5b600061209186828701611fd5565b93505060206120a286828701611fd5565b92505060406120b386828701611f20565b9150509250925092565b6000602082840312156120d3576120d2611d88565b5b60006120e184828501611fd5565b91505092915050565b6120f381611eff565b82525050565b600060208201905061210e60008301846120ea565b92915050565b6000604082019050818103600083015261212e8185611ea4565b905061213d6020830184611f94565b9392505050565b61214d81611e17565b811461215857600080fd5b50565b60008135905061216a81612144565b92915050565b6000806040838503121561218757612186611d88565b5b600061219585828601611fd5565b92505060206121a68582860161215b565b9150509250929050565b600080fd5b600080fd5b7f4e487b7100000000000000000000000000000000000000000000000000000000600052604160045260246000fd5b6121f282611e93565b810181811067ffffffffffffffff82111715612211576122106121ba565b5b80604052505050565b6000612224611d7e565b905061223082826121e9565b919050565b600067ffffffffffffffff8211156122505761224f6121ba565b5b61225982611e93565b9050602081019050919050565b82818337600083830152505050565b600061228861228384612235565b61221a565b9050828152602081018484840111156122a4576122a36121b5565b5b6122af848285612266565b509392505050565b600082601f8301126122cc576122cb6121b0565b5b81356122dc848260208601612275565b91505092915050565b600080600080608085870312156122ff576122fe611d88565b5b600061230d87828801611fd5565b945050602061231e87828801611fd5565b935050604061232f87828801611f20565b925050606085013567ffffffffffffffff8111156123505761234f611d8d565b5b61235c878288016122b7565b91505092959194509250565b6000806040838503121561237f5761237e611d88565b5b600061238d85828601611fd5565b925050602061239e85828601611fd5565b9150509250929050565b600067ffffffffffffffff8211156123c3576123c26121ba565b5b6123cc82611e93565b9050602081019050919050565b60006123ec6123e7846123a8565b61221a565b905082815260208101848484011115612408576124076121b5565b5b612413848285612266565b509392505050565b600082601f8301126124305761242f6121b0565b5b81356124408482602086016123d9565b91505092915050565b600080604083850312156124605761245f611d88565b5b600061246e85828601611fd5565b925050602083013567ffffffffffffffff81111561248f5761248e611d8d565b5b61249b8582860161241b565b9150509250929050565b7f4e487b7100000000000000000000000000000000000000000000000000000000600052602260045260246000fd5b600060028204905060018216806124ec57607f821691505b6020821081036124ff576124fe6124a5565b5b50919050565b600060608201905061251a6000830186611f94565b61252760208301856120ea565b6125346040830184611f94565b949350505050565b600081905092915050565b600061255282611e4d565b61255c818561253c565b935061256c818560208601611e69565b80840191505092915050565b60006125848285612547565b91506125908284612547565b91508190509392505050565b7f4e487b7100000000000000000000000000000000000000000000000000000000600052601160045260246000fd5b60006125d682611eff565b91507fffffffffffffffffffffffffffffffffffffffffffffffffffffffffffffffff82036126085761260761259c565b5b600182019050919050565b600060408201905061262860008301856120ea565b6126356020830184611f94565b9392505050565b600081519050919050565b600082825260208201905092915050565b60006126638261263c565b61266d8185612647565b935061267d818560208601611e69565b61268681611e93565b840191505092915050565b60006080820190506126a66000830187611f94565b6126b36020830186611f94565b6126c060408301856120ea565b81810360608301526126d28184612658565b905095945050505050565b6000815190506126ec81611dbe565b92915050565b60006020828403121561270857612707611d88565b5b6000612716848285016126dd565b91505092915050565b60008190508160005260206000209050919050565b60006020601f8301049050919050565b600082821b905092915050565b6000600883026127817fffffffffffffffffffffffffffffffffffffffffffffffffffffffffffffffff82612744565b61278b8683612744565b95508019841693508086168417925050509392505050565b6000819050919050565b60006127c86127c36127be84611eff565b6127a3565b611eff565b9050919050565b6000819050919050565b6127e2836127ad565b6127f66127ee826127cf565b848454612751565b825550505050565b600090565b61280b6127fe565b6128168184846127d9565b505050565b5b8181101561283a5761282f600082612803565b60018101905061281c565b5050565b601f82111561287f576128508161271f565b61285984612734565b81016020851015612868578190505b61287c61287485612734565b83018261281b565b50505b505050565b600082821c905092915050565b60006128a260001984600802612884565b1980831691505092915050565b60006128bb8383612891565b9150826002028217905092915050565b6128d482611e4d565b67ffffffffffffffff8111156128ed576128ec6121ba565b5b6128f782546124d4565b61290282828561283e565b600060209050601f8311600181146129355760008415612923578287015190505b61292d85826128af565b865550612995565b601f1984166129438661271f565b60005b8281101561296b57848901518255600182019150602085019450602081019050612946565b868310156129885784890151612984601f891682612891565b8355505b6001600288020188555050505b505050505050565b60006040820190506129b26000830185611f94565b6129bf60208301846120ea565b9392505050565b7f4e487b7100000000000000000000000000000000000000000000000000000000600052601260045260246000fdfea2646970667358221220780f0f2ac2d3dbc9b3804ca2b5f67edba22e8855227eefc12884de73dc6f7e2964736f6c63430008180033",
  "linkReferences": {},
  "deployedLinkReferences": {}
}